{
  "contractName": "ReaperStrategyBeethovenDaiUnderlying",
  "abi": [
    {
      "anonymous": false,
      "inputs": [
        {
          "indexed": false,
          "internalType": "address",
          "name": "previousAdmin",
          "type": "address"
        },
        {
          "indexed": false,
          "internalType": "address",
          "name": "newAdmin",
          "type": "address"
        }
      ],
      "name": "AdminChanged",
      "type": "event"
    },
    {
      "anonymous": false,
      "inputs": [
        {
          "indexed": true,
          "internalType": "address",
          "name": "beacon",
          "type": "address"
        }
      ],
      "name": "BeaconUpgraded",
      "type": "event"
    },
    {
      "anonymous": false,
      "inputs": [
        {
          "indexed": false,
          "internalType": "uint256",
          "name": "newCallFee",
          "type": "uint256"
        },
        {
          "indexed": false,
          "internalType": "uint256",
          "name": "newTreasuryFee",
          "type": "uint256"
        },
        {
          "indexed": false,
          "internalType": "uint256",
          "name": "newStrategistFee",
          "type": "uint256"
        }
      ],
      "name": "FeesUpdated",
      "type": "event"
    },
    {
      "anonymous": false,
      "inputs": [
        {
          "indexed": false,
          "internalType": "uint8",
          "name": "version",
          "type": "uint8"
        }
      ],
      "name": "Initialized",
      "type": "event"
    },
    {
      "anonymous": false,
      "inputs": [
        {
          "indexed": false,
          "internalType": "address",
          "name": "account",
          "type": "address"
        }
      ],
      "name": "Paused",
      "type": "event"
    },
    {
      "anonymous": false,
      "inputs": [
        {
          "indexed": true,
          "internalType": "bytes32",
          "name": "role",
          "type": "bytes32"
        },
        {
          "indexed": true,
          "internalType": "bytes32",
          "name": "previousAdminRole",
          "type": "bytes32"
        },
        {
          "indexed": true,
          "internalType": "bytes32",
          "name": "newAdminRole",
          "type": "bytes32"
        }
      ],
      "name": "RoleAdminChanged",
      "type": "event"
    },
    {
      "anonymous": false,
      "inputs": [
        {
          "indexed": true,
          "internalType": "bytes32",
          "name": "role",
          "type": "bytes32"
        },
        {
          "indexed": true,
          "internalType": "address",
          "name": "account",
          "type": "address"
        },
        {
          "indexed": true,
          "internalType": "address",
          "name": "sender",
          "type": "address"
        }
      ],
      "name": "RoleGranted",
      "type": "event"
    },
    {
      "anonymous": false,
      "inputs": [
        {
          "indexed": true,
          "internalType": "bytes32",
          "name": "role",
          "type": "bytes32"
        },
        {
          "indexed": true,
          "internalType": "address",
          "name": "account",
          "type": "address"
        },
        {
          "indexed": true,
          "internalType": "address",
          "name": "sender",
          "type": "address"
        }
      ],
      "name": "RoleRevoked",
      "type": "event"
    },
    {
      "anonymous": false,
      "inputs": [
        {
          "indexed": true,
          "internalType": "address",
          "name": "harvester",
          "type": "address"
        }
      ],
      "name": "StratHarvest",
      "type": "event"
    },
    {
      "anonymous": false,
      "inputs": [
        {
          "indexed": false,
          "internalType": "address",
          "name": "newStrategistRemitter",
          "type": "address"
        }
      ],
      "name": "StrategistRemitterUpdated",
      "type": "event"
    },
    {
      "anonymous": false,
      "inputs": [
        {
          "indexed": false,
          "internalType": "uint256",
          "name": "newFee",
          "type": "uint256"
        }
      ],
      "name": "TotalFeeUpdated",
      "type": "event"
    },
    {
      "anonymous": false,
      "inputs": [
        {
          "indexed": false,
          "internalType": "address",
          "name": "account",
          "type": "address"
        }
      ],
      "name": "Unpaused",
      "type": "event"
    },
    {
      "anonymous": false,
      "inputs": [
        {
          "indexed": true,
          "internalType": "address",
          "name": "implementation",
          "type": "address"
        }
      ],
      "name": "Upgraded",
      "type": "event"
    },
    {
      "inputs": [],
      "name": "BEETS",
      "outputs": [
        {
          "internalType": "address",
          "name": "",
          "type": "address"
        }
      ],
      "stateMutability": "view",
      "type": "function"
    },
    {
      "inputs": [],
      "name": "BEET_VAULT",
      "outputs": [
        {
          "internalType": "address",
          "name": "",
          "type": "address"
        }
      ],
      "stateMutability": "view",
      "type": "function"
    },
    {
      "inputs": [],
      "name": "DAI",
      "outputs": [
        {
          "internalType": "address",
          "name": "",
          "type": "address"
        }
      ],
      "stateMutability": "view",
      "type": "function"
    },
    {
      "inputs": [],
      "name": "DEFAULT_ADMIN_ROLE",
      "outputs": [
        {
          "internalType": "bytes32",
          "name": "",
          "type": "bytes32"
        }
      ],
      "stateMutability": "view",
      "type": "function"
    },
    {
      "inputs": [],
      "name": "FHM",
      "outputs": [
        {
          "internalType": "address",
          "name": "",
          "type": "address"
        }
      ],
      "stateMutability": "view",
      "type": "function"
    },
    {
      "inputs": [],
      "name": "MASTER_CHEF",
      "outputs": [
        {
          "internalType": "address",
          "name": "",
          "type": "address"
        }
      ],
      "stateMutability": "view",
      "type": "function"
    },
    {
      "inputs": [],
      "name": "MAX_FEE",
      "outputs": [
        {
          "internalType": "uint256",
          "name": "",
          "type": "uint256"
        }
      ],
      "stateMutability": "view",
      "type": "function"
    },
    {
      "inputs": [],
      "name": "MAX_SECURITY_FEE",
      "outputs": [
        {
          "internalType": "uint256",
          "name": "",
          "type": "uint256"
        }
      ],
      "stateMutability": "view",
      "type": "function"
    },
    {
      "inputs": [],
      "name": "ONE_YEAR",
      "outputs": [
        {
          "internalType": "uint256",
          "name": "",
          "type": "uint256"
        }
      ],
      "stateMutability": "view",
      "type": "function"
    },
    {
      "inputs": [],
      "name": "PERCENT_DIVISOR",
      "outputs": [
        {
          "internalType": "uint256",
          "name": "",
          "type": "uint256"
        }
      ],
      "stateMutability": "view",
      "type": "function"
    },
    {
      "inputs": [],
      "name": "SPOOKY_ROUTER",
      "outputs": [
        {
          "internalType": "address",
          "name": "",
          "type": "address"
        }
      ],
      "stateMutability": "view",
      "type": "function"
    },
    {
      "inputs": [],
      "name": "STRATEGIST",
      "outputs": [
        {
          "internalType": "bytes32",
          "name": "",
          "type": "bytes32"
        }
      ],
      "stateMutability": "view",
      "type": "function"
    },
    {
      "inputs": [],
      "name": "STRATEGIST_MAX_FEE",
      "outputs": [
        {
          "internalType": "uint256",
          "name": "",
          "type": "uint256"
        }
      ],
      "stateMutability": "view",
      "type": "function"
    },
    {
      "inputs": [],
      "name": "STRATEGIST_MULTISIG",
      "outputs": [
        {
          "internalType": "bytes32",
          "name": "",
          "type": "bytes32"
        }
      ],
      "stateMutability": "view",
      "type": "function"
    },
    {
      "inputs": [],
      "name": "UPGRADE_TIMELOCK",
      "outputs": [
        {
          "internalType": "uint256",
          "name": "",
          "type": "uint256"
        }
      ],
      "stateMutability": "view",
      "type": "function"
    },
    {
      "inputs": [],
      "name": "WFTM",
      "outputs": [
        {
          "internalType": "address",
          "name": "",
          "type": "address"
        }
      ],
      "stateMutability": "view",
      "type": "function"
    },
    {
      "inputs": [],
      "name": "WFTM_BEETS_POOL",
      "outputs": [
        {
          "internalType": "bytes32",
          "name": "",
          "type": "bytes32"
        }
      ],
      "stateMutability": "view",
      "type": "function"
    },
    {
      "inputs": [],
      "name": "WFTM_DAI_POOL",
      "outputs": [
        {
          "internalType": "bytes32",
          "name": "",
          "type": "bytes32"
        }
      ],
      "stateMutability": "view",
      "type": "function"
    },
    {
      "inputs": [
        {
          "internalType": "int256",
          "name": "_n",
          "type": "int256"
        }
      ],
      "name": "averageAPRAcrossLastNHarvests",
      "outputs": [
        {
          "internalType": "int256",
          "name": "",
          "type": "int256"
        }
      ],
      "stateMutability": "view",
      "type": "function"
    },
    {
      "inputs": [],
      "name": "beetsPoolId",
      "outputs": [
        {
          "internalType": "bytes32",
          "name": "",
          "type": "bytes32"
        }
      ],
      "stateMutability": "view",
      "type": "function"
    },
    {
      "inputs": [
        {
          "internalType": "uint256",
          "name": "_startIndex",
          "type": "uint256"
        },
        {
          "internalType": "uint256",
          "name": "_endIndex",
          "type": "uint256"
        }
      ],
      "name": "calculateAPRUsingLogs",
      "outputs": [
        {
          "internalType": "int256",
          "name": "",
          "type": "int256"
        }
      ],
      "stateMutability": "view",
      "type": "function"
    },
    {
      "inputs": [],
      "name": "callFee",
      "outputs": [
        {
          "internalType": "uint256",
          "name": "",
          "type": "uint256"
        }
      ],
      "stateMutability": "view",
      "type": "function"
    },
    {
      "inputs": [],
      "name": "clearUpgradeCooldown",
      "outputs": [],
      "stateMutability": "nonpayable",
      "type": "function"
    },
    {
      "inputs": [],
      "name": "daiPosition",
      "outputs": [
        {
          "internalType": "uint256",
          "name": "",
          "type": "uint256"
        }
      ],
      "stateMutability": "view",
      "type": "function"
    },
    {
      "inputs": [],
      "name": "deposit",
      "outputs": [],
      "stateMutability": "nonpayable",
      "type": "function"
    },
    {
      "inputs": [
        {
          "internalType": "uint256",
          "name": "",
          "type": "uint256"
        }
      ],
      "name": "fhmToDaiPath",
      "outputs": [
        {
          "internalType": "address",
          "name": "",
          "type": "address"
        }
      ],
      "stateMutability": "view",
      "type": "function"
    },
    {
      "inputs": [
        {
          "internalType": "uint256",
          "name": "",
          "type": "uint256"
        }
      ],
      "name": "fhmToWftmPath",
      "outputs": [
        {
          "internalType": "address",
          "name": "",
          "type": "address"
        }
      ],
      "stateMutability": "view",
      "type": "function"
    },
    {
      "inputs": [
        {
          "internalType": "bytes32",
          "name": "role",
          "type": "bytes32"
        }
      ],
      "name": "getRoleAdmin",
      "outputs": [
        {
          "internalType": "bytes32",
          "name": "",
          "type": "bytes32"
        }
      ],
      "stateMutability": "view",
      "type": "function"
    },
    {
      "inputs": [
        {
          "internalType": "bytes32",
          "name": "role",
          "type": "bytes32"
        },
        {
          "internalType": "uint256",
          "name": "index",
          "type": "uint256"
        }
      ],
      "name": "getRoleMember",
      "outputs": [
        {
          "internalType": "address",
          "name": "",
          "type": "address"
        }
      ],
      "stateMutability": "view",
      "type": "function"
    },
    {
      "inputs": [
        {
          "internalType": "bytes32",
          "name": "role",
          "type": "bytes32"
        }
      ],
      "name": "getRoleMemberCount",
      "outputs": [
        {
          "internalType": "uint256",
          "name": "",
          "type": "uint256"
        }
      ],
      "stateMutability": "view",
      "type": "function"
    },
    {
      "inputs": [
        {
          "internalType": "bytes32",
          "name": "role",
          "type": "bytes32"
        },
        {
          "internalType": "address",
          "name": "account",
          "type": "address"
        }
      ],
      "name": "grantRole",
      "outputs": [],
      "stateMutability": "nonpayable",
      "type": "function"
    },
    {
      "inputs": [],
      "name": "harvest",
      "outputs": [],
      "stateMutability": "nonpayable",
      "type": "function"
    },
    {
      "inputs": [
        {
          "internalType": "uint256",
          "name": "",
          "type": "uint256"
        }
      ],
      "name": "harvestLog",
      "outputs": [
        {
          "internalType": "uint256",
          "name": "timestamp",
          "type": "uint256"
        },
        {
          "internalType": "uint256",
          "name": "vaultSharePrice",
          "type": "uint256"
        }
      ],
      "stateMutability": "view",
      "type": "function"
    },
    {
      "inputs": [],
      "name": "harvestLogCadence",
      "outputs": [
        {
          "internalType": "uint256",
          "name": "",
          "type": "uint256"
        }
      ],
      "stateMutability": "view",
      "type": "function"
    },
    {
      "inputs": [],
      "name": "harvestLogLength",
      "outputs": [
        {
          "internalType": "uint256",
          "name": "",
          "type": "uint256"
        }
      ],
      "stateMutability": "view",
      "type": "function"
    },
    {
      "inputs": [
        {
          "internalType": "bytes32",
          "name": "role",
          "type": "bytes32"
        },
        {
          "internalType": "address",
          "name": "account",
          "type": "address"
        }
      ],
      "name": "hasRole",
      "outputs": [
        {
          "internalType": "bool",
          "name": "",
          "type": "bool"
        }
      ],
      "stateMutability": "view",
      "type": "function"
    },
    {
      "inputs": [],
      "name": "initiateUpgradeCooldown",
      "outputs": [],
      "stateMutability": "nonpayable",
      "type": "function"
    },
    {
      "inputs": [],
      "name": "lastHarvestTimestamp",
      "outputs": [
        {
          "internalType": "uint256",
          "name": "",
          "type": "uint256"
        }
      ],
      "stateMutability": "view",
      "type": "function"
    },
    {
      "inputs": [],
      "name": "mcPoolId",
      "outputs": [
        {
          "internalType": "uint256",
          "name": "",
          "type": "uint256"
        }
      ],
      "stateMutability": "view",
      "type": "function"
    },
    {
      "inputs": [],
      "name": "panic",
      "outputs": [],
      "stateMutability": "nonpayable",
      "type": "function"
    },
    {
      "inputs": [],
      "name": "pause",
      "outputs": [],
      "stateMutability": "nonpayable",
      "type": "function"
    },
    {
      "inputs": [],
      "name": "paused",
      "outputs": [
        {
          "internalType": "bool",
          "name": "",
          "type": "bool"
        }
      ],
      "stateMutability": "view",
      "type": "function"
    },
    {
      "inputs": [],
      "name": "proxiableUUID",
      "outputs": [
        {
          "internalType": "bytes32",
          "name": "",
          "type": "bytes32"
        }
      ],
      "stateMutability": "view",
      "type": "function"
    },
    {
      "inputs": [
        {
          "internalType": "bytes32",
          "name": "role",
          "type": "bytes32"
        },
        {
          "internalType": "address",
          "name": "account",
          "type": "address"
        }
      ],
      "name": "renounceRole",
      "outputs": [],
      "stateMutability": "nonpayable",
      "type": "function"
    },
    {
      "inputs": [],
      "name": "retireStrat",
      "outputs": [],
      "stateMutability": "nonpayable",
      "type": "function"
    },
    {
      "inputs": [
        {
          "internalType": "bytes32",
          "name": "role",
          "type": "bytes32"
        },
        {
          "internalType": "address",
          "name": "account",
          "type": "address"
        }
      ],
      "name": "revokeRole",
      "outputs": [],
      "stateMutability": "nonpayable",
      "type": "function"
    },
    {
      "inputs": [],
      "name": "securityFee",
      "outputs": [
        {
          "internalType": "uint256",
          "name": "",
          "type": "uint256"
        }
      ],
      "stateMutability": "view",
      "type": "function"
    },
    {
      "inputs": [],
      "name": "strategistFee",
      "outputs": [
        {
          "internalType": "uint256",
          "name": "",
          "type": "uint256"
        }
      ],
      "stateMutability": "view",
      "type": "function"
    },
    {
      "inputs": [],
      "name": "strategistRemitter",
      "outputs": [
        {
          "internalType": "address",
          "name": "",
          "type": "address"
        }
      ],
      "stateMutability": "view",
      "type": "function"
    },
    {
      "inputs": [
        {
          "internalType": "bytes4",
          "name": "interfaceId",
          "type": "bytes4"
        }
      ],
      "name": "supportsInterface",
      "outputs": [
        {
          "internalType": "bool",
          "name": "",
          "type": "bool"
        }
      ],
      "stateMutability": "view",
      "type": "function"
    },
    {
      "inputs": [],
      "name": "totalFee",
      "outputs": [
        {
          "internalType": "uint256",
          "name": "",
          "type": "uint256"
        }
      ],
      "stateMutability": "view",
      "type": "function"
    },
    {
      "inputs": [],
      "name": "treasury",
      "outputs": [
        {
          "internalType": "address",
          "name": "",
          "type": "address"
        }
      ],
      "stateMutability": "view",
      "type": "function"
    },
    {
      "inputs": [],
      "name": "treasuryFee",
      "outputs": [
        {
          "internalType": "uint256",
          "name": "",
          "type": "uint256"
        }
      ],
      "stateMutability": "view",
      "type": "function"
    },
    {
      "inputs": [],
      "name": "unpause",
      "outputs": [],
      "stateMutability": "nonpayable",
      "type": "function"
    },
    {
      "inputs": [
        {
          "internalType": "uint256",
          "name": "_callFee",
          "type": "uint256"
        },
        {
          "internalType": "uint256",
          "name": "_treasuryFee",
          "type": "uint256"
        },
        {
          "internalType": "uint256",
          "name": "_strategistFee",
          "type": "uint256"
        }
      ],
      "name": "updateFees",
      "outputs": [
        {
          "internalType": "bool",
          "name": "",
          "type": "bool"
        }
      ],
      "stateMutability": "nonpayable",
      "type": "function"
    },
    {
      "inputs": [
        {
          "internalType": "uint256",
          "name": "_newCadenceInSeconds",
          "type": "uint256"
        }
      ],
      "name": "updateHarvestLogCadence",
      "outputs": [],
      "stateMutability": "nonpayable",
      "type": "function"
    },
    {
      "inputs": [
        {
          "internalType": "uint256",
          "name": "_securityFee",
          "type": "uint256"
        }
      ],
      "name": "updateSecurityFee",
      "outputs": [],
      "stateMutability": "nonpayable",
      "type": "function"
    },
    {
      "inputs": [
        {
          "internalType": "address",
          "name": "_newStrategistRemitter",
          "type": "address"
        }
      ],
      "name": "updateStrategistRemitter",
      "outputs": [],
      "stateMutability": "nonpayable",
      "type": "function"
    },
    {
      "inputs": [
        {
          "internalType": "uint256",
          "name": "_totalFee",
          "type": "uint256"
        }
      ],
      "name": "updateTotalFee",
      "outputs": [],
      "stateMutability": "nonpayable",
      "type": "function"
    },
    {
      "inputs": [
        {
          "internalType": "address",
          "name": "newTreasury",
          "type": "address"
        }
      ],
      "name": "updateTreasury",
      "outputs": [
        {
          "internalType": "bool",
          "name": "",
          "type": "bool"
        }
      ],
      "stateMutability": "nonpayable",
      "type": "function"
    },
    {
      "inputs": [],
      "name": "upgradeProposalTime",
      "outputs": [
        {
          "internalType": "uint256",
          "name": "",
          "type": "uint256"
        }
      ],
      "stateMutability": "view",
      "type": "function"
    },
    {
      "inputs": [
        {
          "internalType": "address",
          "name": "newImplementation",
          "type": "address"
        }
      ],
      "name": "upgradeTo",
      "outputs": [],
      "stateMutability": "nonpayable",
      "type": "function"
    },
    {
      "inputs": [
        {
          "internalType": "address",
          "name": "newImplementation",
          "type": "address"
        },
        {
          "internalType": "bytes",
          "name": "data",
          "type": "bytes"
        }
      ],
      "name": "upgradeToAndCall",
      "outputs": [],
      "stateMutability": "payable",
      "type": "function"
    },
    {
      "inputs": [],
      "name": "vault",
      "outputs": [
        {
          "internalType": "address",
          "name": "",
          "type": "address"
        }
      ],
      "stateMutability": "view",
      "type": "function"
    },
    {
      "inputs": [],
      "name": "want",
      "outputs": [
        {
          "internalType": "address",
          "name": "",
          "type": "address"
        }
      ],
      "stateMutability": "view",
      "type": "function"
    },
    {
      "inputs": [
        {
          "internalType": "uint256",
          "name": "_amount",
          "type": "uint256"
        }
      ],
      "name": "withdraw",
      "outputs": [],
      "stateMutability": "nonpayable",
      "type": "function"
    },
    {
      "inputs": [
        {
          "internalType": "address",
          "name": "_vault",
          "type": "address"
        },
        {
          "internalType": "address[]",
          "name": "_feeRemitters",
          "type": "address[]"
        },
        {
          "internalType": "address[]",
          "name": "_strategists",
          "type": "address[]"
        },
        {
          "internalType": "address",
          "name": "_want",
          "type": "address"
        },
        {
          "internalType": "uint256",
          "name": "_mcPoolId",
          "type": "uint256"
        }
      ],
      "name": "initialize",
      "outputs": [],
      "stateMutability": "nonpayable",
      "type": "function"
    },
    {
      "inputs": [],
      "name": "balanceOf",
      "outputs": [
        {
          "internalType": "uint256",
          "name": "",
          "type": "uint256"
        }
      ],
      "stateMutability": "view",
      "type": "function"
    },
    {
      "inputs": [],
      "name": "estimateHarvest",
      "outputs": [
        {
          "internalType": "uint256",
          "name": "profit",
          "type": "uint256"
        },
        {
          "internalType": "uint256",
          "name": "callFeeToUser",
          "type": "uint256"
        }
      ],
      "stateMutability": "view",
      "type": "function"
    },
    {
      "inputs": [
        {
          "internalType": "address[]",
          "name": "_fhmToWftmPath",
          "type": "address[]"
        },
        {
          "internalType": "address[]",
          "name": "_fhmToDaiPath",
          "type": "address[]"
        }
      ],
      "name": "setPathsPostUpgrade",
      "outputs": [],
      "stateMutability": "nonpayable",
      "type": "function"
    }
  ],
  "bytecode": "0x60a06040523073ffffffffffffffffffffffffffffffffffffffff1660809073ffffffffffffffffffffffffffffffffffffffff168152503480156200004457600080fd5b506000620000596001620000e160201b60201c565b905080156200007e576001600060016101000a81548160ff0219169083151502179055505b8015620000da5760008060016101000a81548160ff0219169083151502179055507f7f26b83ff96e1f2b6a682f133852f6798a09c465da95921460cefb38474024986001604051620000d1919062000264565b60405180910390a15b506200032a565b60008060019054906101000a900460ff16156200016b5760018260ff161480156200011f57506200011d30620001e760201b62002df01760201c565b155b62000161576040517f08c379a0000000000000000000000000000000000000000000000000000000008152600401620001589062000308565b60405180910390fd5b60009050620001e2565b8160ff1660008054906101000a900460ff1660ff1610620001c3576040517f08c379a0000000000000000000000000000000000000000000000000000000008152600401620001ba9062000308565b60405180910390fd5b816000806101000a81548160ff021916908360ff160217905550600190505b919050565b6000808273ffffffffffffffffffffffffffffffffffffffff163b119050919050565b6000819050919050565b600060ff82169050919050565b6000819050919050565b60006200024c6200024662000240846200020a565b62000221565b62000214565b9050919050565b6200025e816200022b565b82525050565b60006020820190506200027b600083018462000253565b92915050565b600082825260208201905092915050565b7f496e697469616c697a61626c653a20636f6e747261637420697320616c72656160008201527f647920696e697469616c697a6564000000000000000000000000000000000000602082015250565b6000620002f0602e8362000281565b9150620002fd8262000292565b604082019050919050565b600060208201905081810360008301526200032381620002e1565b9050919050565b608051618a2862000362600039600081816114990152818161152801528181611b6401528181611bf30152611caa0152618a286000f3fe6080604052600436106104055760003560e01c80637f51bb1f11610213578063ca15c87311610123578063e46257d2116100ab578063f37ae3281161007a578063f37ae32814610ef9578063f4852a8114610f37578063f770609a14610f74578063fb61778714610f9f578063fbfa77cf14610fb657610405565b8063e46257d214610e51578063ec90b12214610e7a578063ecf173ff14610ea3578063edd8b17014610ece57610405565b8063d547741f116100f2578063d547741f14610d7c578063d68e130214610da5578063d8d908c414610dd0578063dd9142f214610dfb578063e0bab4c414610e2657610405565b8063ca15c87314610cd4578063cc32d17614610d11578063d0e30db014610d3c578063d32b960414610d5357610405565b806391d14854116101a65780639fa6b47a116101755780639fa6b47a14610bfc578063a217fddf14610c27578063b29d404b14610c52578063b54effcc14610c7e578063bc063e1a14610ca957610405565b806391d1485414610b2c578063938675e414610b69578063938ffda414610b945780639cfdede314610bd157610405565b80638888f9f6116101e25780638888f9f614610a5c5780638cf5588214610a875780639010d07c14610ac457806390321e1a14610b0157610405565b80637f51bb1f146109da57806382b0b17514610a175780638456cb5914610a2e5780638887998514610a4557610405565b806336568abe1161031957806352d1902d116102a157806361d027b31161027057806361d027b314610903578063651eebfe1461092e578063722713f71461095957806372c95e561461098457806377f6b339146109af57610405565b806352d1902d14610859578063593f3f0b146108845780635c975abb146108af57806361591149146108da57610405565b80634649d442116102e85780634649d442146107a75780634700d305146107d05780634870dd9a146107e75780634f1ef28614610812578063526e10801461082e57610405565b806336568abe146107275780633659cfe6146107505780633f4ba83a146107795780634641257d1461079057610405565b8063224290851161039c5780632d6f4baa1161036b5780632d6f4baa146106565780632e1a7d4d146106815780632f2ff15d146106aa5780632fa5f903146106d357806330c90e63146106fc57610405565b806322429085146105865780632257a738146105c3578063248a9ca3146105ee57806325ed32ca1461062b57610405565b806316d3bfbb116103d857806316d3bfbb146104da5780631df4ccfc146105055780631f1fcd511461053057806321dbe8761461055b57610405565b806301ffc9a71461040a5780631134f00e1461044757806313b405e31461047257806313c6c475146104af575b600080fd5b34801561041657600080fd5b50610431600480360381019061042c9190616048565b610fe1565b60405161043e9190616090565b60405180910390f35b34801561045357600080fd5b5061045c61105b565b60405161046991906160ec565b60405180910390f35b34801561047e57600080fd5b506104996004803603810190610494919061613d565b611073565b6040516104a691906160ec565b60405180910390f35b3480156104bb57600080fd5b506104c46110b3565b6040516104d19190616179565b60405180910390f35b3480156104e657600080fd5b506104ef6110b8565b6040516104fc9190616179565b60405180910390f35b34801561051157600080fd5b5061051a6110c0565b6040516105279190616179565b60405180910390f35b34801561053c57600080fd5b506105456110c7565b60405161055291906160ec565b60405180910390f35b34801561056757600080fd5b506105706110ee565b60405161057d91906160ec565b60405180910390f35b34801561059257600080fd5b506105ad60048036038101906105a89190616194565b611106565b6040516105ba9190616090565b60405180910390f35b3480156105cf57600080fd5b506105d8611211565b6040516105e59190616179565b60405180910390f35b3480156105fa57600080fd5b506106156004803603810190610610919061621d565b611218565b6040516106229190616259565b60405180910390f35b34801561063757600080fd5b50610640611238565b60405161064d9190616179565b60405180910390f35b34801561066257600080fd5b5061066b61123f565b6040516106789190616179565b60405180910390f35b34801561068d57600080fd5b506106a860048036038101906106a3919061613d565b61124d565b005b3480156106b657600080fd5b506106d160048036038101906106cc91906162a0565b6113a7565b005b3480156106df57600080fd5b506106fa60048036038101906106f59190616345565b6113c8565b005b34801561070857600080fd5b506107116113fc565b60405161071e91906160ec565b60405180910390f35b34801561073357600080fd5b5061074e600480360381019061074991906162a0565b611414565b005b34801561075c57600080fd5b50610777600480360381019061077291906163c6565b611497565b005b34801561078557600080fd5b5061078e611620565b005b34801561079c57600080fd5b506107a5611642565b005b3480156107b357600080fd5b506107ce60048036038101906107c99190616542565b611815565b005b3480156107dc57600080fd5b506107e5611b42565b005b3480156107f357600080fd5b506107fc611b5c565b6040516108099190616179565b60405180910390f35b61082c600480360381019061082791906166aa565b611b62565b005b34801561083a57600080fd5b50610843611c9f565b6040516108509190616179565b60405180910390f35b34801561086557600080fd5b5061086e611ca6565b60405161087b9190616259565b60405180910390f35b34801561089057600080fd5b50610899611d5f565b6040516108a69190616259565b60405180910390f35b3480156108bb57600080fd5b506108c4611d86565b6040516108d19190616090565b60405180910390f35b3480156108e657600080fd5b5061090160048036038101906108fc919061613d565b611d9e565b005b34801561090f57600080fd5b50610918611dfb565b60405161092591906160ec565b60405180910390f35b34801561093a57600080fd5b50610943611e22565b6040516109509190616179565b60405180910390f35b34801561096557600080fd5b5061096e611e29565b60405161097b9190616179565b60405180910390f35b34801561099057600080fd5b50610999611f6f565b6040516109a69190616179565b60405180910390f35b3480156109bb57600080fd5b506109c4611f76565b6040516109d19190616179565b60405180910390f35b3480156109e657600080fd5b50610a0160048036038101906109fc91906163c6565b611f7d565b604051610a0e9190616090565b60405180910390f35b348015610a2357600080fd5b50610a2c611fd8565b005b348015610a3a57600080fd5b50610a43611ff0565b005b348015610a5157600080fd5b50610a5a61200a565b005b348015610a6857600080fd5b50610a7161203d565b604051610a7e91906160ec565b60405180910390f35b348015610a9357600080fd5b50610aae6004803603810190610aa99190616706565b612064565b604051610abb919061675f565b60405180910390f35b348015610ad057600080fd5b50610aeb6004803603810190610ae6919061677a565b6121a9565b604051610af891906160ec565b60405180910390f35b348015610b0d57600080fd5b50610b166121d8565b604051610b239190616179565b60405180910390f35b348015610b3857600080fd5b50610b536004803603810190610b4e91906162a0565b6121df565b604051610b609190616090565b60405180910390f35b348015610b7557600080fd5b50610b7e61224a565b604051610b8b9190616259565b60405180910390f35b348015610ba057600080fd5b50610bbb6004803603810190610bb6919061613d565b612271565b604051610bc891906160ec565b60405180910390f35b348015610bdd57600080fd5b50610be66122b1565b604051610bf39190616259565b60405180910390f35b348015610c0857600080fd5b50610c116122d5565b604051610c1e91906160ec565b60405180910390f35b348015610c3357600080fd5b50610c3c6122ed565b604051610c499190616259565b60405180910390f35b348015610c5e57600080fd5b50610c676122f4565b604051610c759291906167ba565b60405180910390f35b348015610c8a57600080fd5b50610c93612960565b604051610ca09190616259565b60405180910390f35b348015610cb557600080fd5b50610cbe612984565b604051610ccb9190616179565b60405180910390f35b348015610ce057600080fd5b50610cfb6004803603810190610cf6919061621d565b61298a565b604051610d089190616179565b60405180910390f35b348015610d1d57600080fd5b50610d266129ae565b604051610d339190616179565b60405180910390f35b348015610d4857600080fd5b50610d516129b5565b005b348015610d5f57600080fd5b50610d7a6004803603810190610d75919061613d565b612a07565b005b348015610d8857600080fd5b50610da36004803603810190610d9e91906162a0565b612a9f565b005b348015610db157600080fd5b50610dba612ac0565b604051610dc79190616179565b60405180910390f35b348015610ddc57600080fd5b50610de5612ac7565b604051610df291906160ec565b60405180910390f35b348015610e0757600080fd5b50610e10612adf565b604051610e1d9190616179565b60405180910390f35b348015610e3257600080fd5b50610e3b612ae6565b604051610e4891906160ec565b60405180910390f35b348015610e5d57600080fd5b50610e786004803603810190610e7391906163c6565b612afe565b005b348015610e8657600080fd5b50610ea16004803603810190610e9c919061613d565b612c75565b005b348015610eaf57600080fd5b50610eb8612c88565b604051610ec59190616179565b60405180910390f35b348015610eda57600080fd5b50610ee3612c8e565b604051610ef091906160ec565b60405180910390f35b348015610f0557600080fd5b50610f206004803603810190610f1b919061613d565b612ca6565b604051610f2e9291906167ba565b60405180910390f35b348015610f4357600080fd5b50610f5e6004803603810190610f59919061680f565b612cdb565b604051610f6b919061675f565b60405180910390f35b348015610f8057600080fd5b50610f89612db0565b604051610f969190616259565b60405180910390f35b348015610fab57600080fd5b50610fb4612db7565b005b348015610fc257600080fd5b50610fcb612dc9565b604051610fd891906160ec565b60405180910390f35b60007f5a05180f000000000000000000000000000000000000000000000000000000007bffffffffffffffffffffffffffffffffffffffffffffffffffffffff1916827bffffffffffffffffffffffffffffffffffffffffffffffffffffffff19161480611054575061105382612e13565b5b9050919050565b7320dd72ed959b6147912c2e529f0a0c651c33c9ce81565b610171818154811061108457600080fd5b906000526020600020016000915054906101000a900473ffffffffffffffffffffffffffffffffffffffff1681565b600a81565b6301e1338081565b6101665481565b61016b60009054906101000a900473ffffffffffffffffffffffffffffffffffffffff1681565b7321be370d5312f44cb42ce377bc9b8a0cef1a4c8381565b60008060001b61111581612e8d565b6127108486611124919061686b565b14611164576040517f08c379a000000000000000000000000000000000000000000000000000000000815260040161115b9061691e565b60405180910390fd5b6113888311156111a9576040517f08c379a00000000000000000000000000000000000000000000000000000000081526004016111a0906169b0565b60405180910390fd5b8461016781905550836101688190555082610169819055507fcf8a1e1d5f09cf3c97dbb653cd9a4d7aace9292fbc1bb8211febf2d400febbdd6101675461016854610169546040516111fd939291906169d0565b60405180910390a160019150509392505050565b6101615481565b600060c96000838152602001908152602001600020600101549050919050565b6202a30081565b600061015f80549050905090565b61016460009054906101000a900473ffffffffffffffffffffffffffffffffffffffff1673ffffffffffffffffffffffffffffffffffffffff163373ffffffffffffffffffffffffffffffffffffffff16146112de576040517f08c379a00000000000000000000000000000000000000000000000000000000081526004016112d590616a53565b60405180910390fd5b6000811415611322576040517f08c379a000000000000000000000000000000000000000000000000000000000815260040161131990616abf565b60405180910390fd5b61132a611e29565b81111561136c576040517f08c379a000000000000000000000000000000000000000000000000000000000815260040161136390616abf565b60405180910390fd5b600061271061016a54836113809190616adf565b61138a9190616b68565b905080826113989190616b99565b91506113a382612ea1565b5050565b6113b082611218565b6113b981612e8d565b6113c38383613051565b505050565b6113d0613085565b838361017191906113e2929190615e26565b50818161017091906113f5929190615e26565b5050505050565b73fa1fbb8ef55a4855e5688c0ee13ac3f20248628681565b61141c613104565b73ffffffffffffffffffffffffffffffffffffffff168173ffffffffffffffffffffffffffffffffffffffff1614611489576040517f08c379a000000000000000000000000000000000000000000000000000000000815260040161148090616c3f565b60405180910390fd5b611493828261310c565b5050565b7f000000000000000000000000000000000000000000000000000000000000000073ffffffffffffffffffffffffffffffffffffffff163073ffffffffffffffffffffffffffffffffffffffff161415611526576040517f08c379a000000000000000000000000000000000000000000000000000000000815260040161151d90616cd1565b60405180910390fd5b7f000000000000000000000000000000000000000000000000000000000000000073ffffffffffffffffffffffffffffffffffffffff16611565613140565b73ffffffffffffffffffffffffffffffffffffffff16146115bb576040517f08c379a00000000000000000000000000000000000000000000000000000000081526004016115b290616d63565b60405180910390fd5b6115c481613197565b61161d81600067ffffffffffffffff8111156115e3576115e2616404565b5b6040519080825280601f01601f1916602001820160405280156116155781602001600182028036833780820191505090505b506000613203565b50565b611628613085565b611630613371565b611638613414565b6116406129b5565b565b61164a611d86565b1561168a576040517f08c379a000000000000000000000000000000000000000000000000000000000815260040161168190616dcf565b60405180910390fd5b6116926134fb565b6101605461015f600161015f805490506116ac9190616b99565b815481106116bd576116bc616def565b5b9060005260206000209060020201600001546116d9919061686b565b42106117c85761015f604051806040016040528042815260200161016460009054906101000a900473ffffffffffffffffffffffffffffffffffffffff1673ffffffffffffffffffffffffffffffffffffffff166377c7b8fc6040518163ffffffff1660e01b8152600401602060405180830381865afa158015611761573d6000803e3d6000fd5b505050506040513d601f19601f820116820180604052508101906117859190616e33565b8152509080600181540180825580915050600190039060005260206000209060020201600090919091909150600082015181600001556020820151816001015550505b42610161819055503373ffffffffffffffffffffffffffffffffffffffff167f577a37fdb49a88d66684922c6f913df5239b4f214b2b97c53ef8e3bbb2034cb560405160405180910390a2565b6000611821600161351d565b90508015611845576001600060016101000a81548160ff0219169083151502179055505b61185086868661360d565b8261016b60006101000a81548173ffffffffffffffffffffffffffffffffffffffff021916908373ffffffffffffffffffffffffffffffffffffffff1602179055508161016d8190555061016b60009054906101000a900473ffffffffffffffffffffffffffffffffffffffff1673ffffffffffffffffffffffffffffffffffffffff166338fff2d06040518163ffffffff1660e01b8152600401602060405180830381865afa158015611908573d6000803e3d6000fd5b505050506040513d601f19601f8201168201806040525081019061192c9190616e75565b61016e8190555060007320dd72ed959b6147912c2e529f0a0c651c33c9ce73ffffffffffffffffffffffffffffffffffffffff1663f94d466861016e546040518263ffffffff1660e01b81526004016119859190616259565b600060405180830381865afa1580156119a2573d6000803e3d6000fd5b505050506040513d6000823e3d601f19601f820116820180604052508101906119cb9190617066565b5050905060005b8151811015611ad757738d11ec38a3eb5e956b052f67da8bdc9bef8abf3e73ffffffffffffffffffffffffffffffffffffffff16828281518110611a1957611a18616def565b5b602002602001015173ffffffffffffffffffffffffffffffffffffffff161415611a46578061016f819055505b61016c828281518110611a5c57611a5b616def565b5b60200260200101519080600181540180825580915050600190039060005260206000200160009091909190916101000a81548173ffffffffffffffffffffffffffffffffffffffff021916908373ffffffffffffffffffffffffffffffffffffffff1602179055508080611acf906170f1565b9150506119d2565b50611ae0613414565b508015611b3a5760008060016101000a81548160ff0219169083151502179055507f7f26b83ff96e1f2b6a682f133852f6798a09c465da95921460cefb38474024986001604051611b31919061718c565b60405180910390a15b505050505050565b611b4a613085565b611b526138ed565b611b5a611ff0565b565b61271081565b7f000000000000000000000000000000000000000000000000000000000000000073ffffffffffffffffffffffffffffffffffffffff163073ffffffffffffffffffffffffffffffffffffffff161415611bf1576040517f08c379a0000000000000000000000000000000000000000000000000000000008152600401611be890616cd1565b60405180910390fd5b7f000000000000000000000000000000000000000000000000000000000000000073ffffffffffffffffffffffffffffffffffffffff16611c30613140565b73ffffffffffffffffffffffffffffffffffffffff1614611c86576040517f08c379a0000000000000000000000000000000000000000000000000000000008152600401611c7d90616d63565b60405180910390fd5b611c8f82613197565b611c9b82826001613203565b5050565b6101695481565b60007f000000000000000000000000000000000000000000000000000000000000000073ffffffffffffffffffffffffffffffffffffffff163073ffffffffffffffffffffffffffffffffffffffff1614611d36576040517f08c379a0000000000000000000000000000000000000000000000000000000008152600401611d2d90617219565b60405180910390fd5b7f360894a13ba1a3210667c828492db98dca3e2076cc3735a920a3ca505d382bbc60001b905090565b7fcde5a11a4acb4ee4c805352cec57e236bdbc383700020000000000000000001960001b81565b600061012d60009054906101000a900460ff16905090565b6000801b611dab81612e8d565b600a821115611def576040517f08c379a0000000000000000000000000000000000000000000000000000000008152600401611de690617285565b60405180910390fd5b8161016a819055505050565b61016360009054906101000a900473ffffffffffffffffffffffffffffffffffffffff1681565b6101625481565b600080738166994d9ebbe5829ec86bd81258149b87facfd373ffffffffffffffffffffffffffffffffffffffff166393f1a40b61016d54306040518363ffffffff1660e01b8152600401611e7e9291906172a5565b6040805180830381865afa158015611e9a573d6000803e3d6000fd5b505050506040513d601f19601f82011682018060405250810190611ebe91906172ce565b50905061016b60009054906101000a900473ffffffffffffffffffffffffffffffffffffffff1673ffffffffffffffffffffffffffffffffffffffff166370a08231306040518263ffffffff1660e01b8152600401611f1d91906160ec565b602060405180830381865afa158015611f3a573d6000803e3d6000fd5b505050506040513d601f19601f82011682018060405250810190611f5e9190616e33565b81611f69919061686b565b91505090565b6101605481565b61016d5481565b60008060001b611f8c81612e8d565b8261016360006101000a81548173ffffffffffffffffffffffffffffffffffffffff021916908373ffffffffffffffffffffffffffffffffffffffff1602179055506001915050919050565b6000801b611fe581612e8d565b426101628190555050565b611ff8613085565b612000613973565b612008613a17565b565b6000801b61201781612e8d565b60646301e133806120289190616adf565b42612033919061686b565b6101628190555050565b61016560009054906101000a900473ffffffffffffffffffffffffffffffffffffffff1681565b60008061015f848154811061207c5761207b616def565b5b90600052602060002090600202019050600061015f84815481106120a3576120a2616def565b5b906000526020600020906002020190506000600190508260010154826001015410156120ce57600090505b600081156120f157836001015483600101546120ea9190616b99565b9050612108565b826001015484600101546121059190616b99565b90505b60008460010154670de0b6b3a7640000836121239190616adf565b61212d9190616b68565b90506000856000015485600001546121459190616b99565b90506000816301e133808461215a9190616adf565b6121649190616b68565b9050655af3107a4000816121789190616b68565b9050841561218f57809750505050505050506121a3565b806121999061730e565b9750505050505050505b92915050565b60006121d08260fb6000868152602001908152602001600020613a7c90919063ffffffff16565b905092915050565b6101675481565b600060c9600084815260200190815260200160002060000160008373ffffffffffffffffffffffffffffffffffffffff1673ffffffffffffffffffffffffffffffffffffffff16815260200190815260200160002060009054906101000a900460ff16905092915050565b7f63386ef152e1ddef96c065636d6cc0165ff332910002000000000000000000a160001b81565b610170818154811061228257600080fd5b906000526020600020016000915054906101000a900473ffffffffffffffffffffffffffffffffffffffff1681565b7fb17d0a42cc710456bf9c3efb785dcd0cb93a0ac358113307b5c64b285b516b5c81565b73f491e7b69e4244ad4002bc14e878a34207e38c2981565b6000801b81565b6000806000738166994d9ebbe5829ec86bd81258149b87facfd3905060008173ffffffffffffffffffffffffffffffffffffffff1663269db90061016d54306040518363ffffffff1660e01b81526004016123509291906172a5565b602060405180830381865afa15801561236d573d6000803e3d6000fd5b505050506040513d601f19601f820116820180604052508101906123919190616e33565b9050600073f24bcf4d1e507740041c9cfd2dddb29585adce1e73ffffffffffffffffffffffffffffffffffffffff166370a08231306040518263ffffffff1660e01b81526004016123e291906160ec565b602060405180830381865afa1580156123ff573d6000803e3d6000fd5b505050506040513d601f19601f820116820180604052508101906124239190616e33565b8261242e919061686b565b90506000811461260b576000600267ffffffffffffffff81111561245557612454616404565b5b6040519080825280602002602001820160405280156124835781602001602082028036833780820191505090505b50905073f24bcf4d1e507740041c9cfd2dddb29585adce1e816000815181106124af576124ae616def565b5b602002602001019073ffffffffffffffffffffffffffffffffffffffff16908173ffffffffffffffffffffffffffffffffffffffff16815250507321be370d5312f44cb42ce377bc9b8a0cef1a4c838160018151811061251257612511616def565b5b602002602001019073ffffffffffffffffffffffffffffffffffffffff16908173ffffffffffffffffffffffffffffffffffffffff168152505073f491e7b69e4244ad4002bc14e878a34207e38c2973ffffffffffffffffffffffffffffffffffffffff1663d06ca61f83836040518363ffffffff1660e01b815260040161259b929190617415565b600060405180830381865afa1580156125b8573d6000803e3d6000fd5b505050506040513d6000823e3d601f19601f820116820180604052508101906125e19190617445565b6001815181106125f4576125f3616def565b5b602002602001015186612607919061686b565b9550505b60008373ffffffffffffffffffffffffffffffffffffffff1663c346253d61016d546040518263ffffffff1660e01b81526004016126499190616179565b602060405180830381865afa158015612666573d6000803e3d6000fd5b505050506040513d601f19601f8201168201806040525081019061268a91906174a3565b90508073ffffffffffffffffffffffffffffffffffffffff166348e43af461016d54306040518363ffffffff1660e01b81526004016126ca9291906172a5565b602060405180830381865afa1580156126e7573d6000803e3d6000fd5b505050506040513d601f19601f8201168201806040525081019061270b9190616e33565b925073fa1fbb8ef55a4855e5688c0ee13ac3f20248628673ffffffffffffffffffffffffffffffffffffffff166370a08231306040518263ffffffff1660e01b815260040161275a91906160ec565b602060405180830381865afa158015612777573d6000803e3d6000fd5b505050506040513d601f19601f8201168201806040525081019061279b9190616e33565b836127a6919061686b565b9150600082146128705773f491e7b69e4244ad4002bc14e878a34207e38c2973ffffffffffffffffffffffffffffffffffffffff1663d06ca61f836101716040518363ffffffff1660e01b81526004016128019291906175bc565b600060405180830381865afa15801561281e573d6000803e3d6000fd5b505050506040513d6000823e3d601f19601f820116820180604052508101906128479190617445565b60018151811061285a57612859616def565b5b60200260200101518661286d919061686b565b95505b7321be370d5312f44cb42ce377bc9b8a0cef1a4c8373ffffffffffffffffffffffffffffffffffffffff166370a08231306040518263ffffffff1660e01b81526004016128bd91906160ec565b602060405180830381865afa1580156128da573d6000803e3d6000fd5b505050506040513d601f19601f820116820180604052508101906128fe9190616e33565b86612909919061686b565b95506000612710610166548861291f9190616adf565b6129299190616b68565b9050612710610167548261293d9190616adf565b6129479190616b68565b955080876129559190616b99565b965050505050509091565b7fa948adc7068532b3bc0cbefb673a9d9c287bc35ef1f8a3a71353d54d7149def781565b6103e881565b60006129a760fb6000848152602001908152602001600020613a96565b9050919050565b6101685481565b6129bd611d86565b156129fd576040517f08c379a00000000000000000000000000000000000000000000000000000000081526004016129f490616dcf565b60405180910390fd5b612a05613aab565b565b6000801b612a1481612e8d565b6103e8821115612a59576040517f08c379a0000000000000000000000000000000000000000000000000000000008152600401612a5090617638565b60405180910390fd5b81610166819055507f2e59d502792bca3d730c472cd3acfbc16d0f9fe6ce0cddbdf0f80830251dfaca61016654604051612a939190616179565b60405180910390a15050565b612aa882611218565b612ab181612e8d565b612abb838361310c565b505050565b61016a5481565b73f24bcf4d1e507740041c9cfd2dddb29585adce1e81565b61016f5481565b738d11ec38a3eb5e956b052f67da8bdc9bef8abf3e81565b6001612b297fb17d0a42cc710456bf9c3efb785dcd0cb93a0ac358113307b5c64b285b516b5c61298a565b1415612b5e57612b597fb17d0a42cc710456bf9c3efb785dcd0cb93a0ac358113307b5c64b285b516b5c33613bde565b612b89565b612b887fa948adc7068532b3bc0cbefb673a9d9c287bc35ef1f8a3a71353d54d7149def733613bde565b5b600073ffffffffffffffffffffffffffffffffffffffff168173ffffffffffffffffffffffffffffffffffffffff161415612bf9576040517f08c379a0000000000000000000000000000000000000000000000000000000008152600401612bf0906176a4565b60405180910390fd5b8061016560006101000a81548173ffffffffffffffffffffffffffffffffffffffff021916908373ffffffffffffffffffffffffffffffffffffffff1602179055507fa11c447ac90d9534769dc85d422963d67c1d8d899de887301417cedf4dec738d81604051612c6a91906160ec565b60405180910390a150565b612c7d613085565b806101608190555050565b61138881565b738166994d9ebbe5829ec86bd81258149b87facfd381565b61015f8181548110612cb757600080fd5b90600052602060002090600202016000915090508060000154908060010154905082565b6000600261015f805490501015612d27576040517f08c379a0000000000000000000000000000000000000000000000000000000008152600401612d1e90617710565b60405180910390fd5b6000806000600161015f80549050612d3f9190616b99565b90505b600081118015612d5157508482125b15612d9a57612d6c600182612d669190616b99565b82612064565b83612d779190617730565b92508180612d84906177c4565b9250508080612d929061780d565b915050612d42565b508082612da79190617837565b92505050919050565b61016e5481565b612dbf613085565b612dc7613c7b565b565b61016460009054906101000a900473ffffffffffffffffffffffffffffffffffffffff1681565b6000808273ffffffffffffffffffffffffffffffffffffffff163b119050919050565b60007f7965db0b000000000000000000000000000000000000000000000000000000007bffffffffffffffffffffffffffffffffffffffffffffffffffffffff1916827bffffffffffffffffffffffffffffffffffffffffffffffffffffffff19161480612e865750612e8582614030565b5b9050919050565b612e9e81612e99613104565b613bde565b50565b600061016b60009054906101000a900473ffffffffffffffffffffffffffffffffffffffff1673ffffffffffffffffffffffffffffffffffffffff166370a08231306040518263ffffffff1660e01b8152600401612eff91906160ec565b602060405180830381865afa158015612f1c573d6000803e3d6000fd5b505050506040513d601f19601f82011682018060405250810190612f409190616e33565b905081811015612fdc57738166994d9ebbe5829ec86bd81258149b87facfd373ffffffffffffffffffffffffffffffffffffffff1663d1abb90761016d548385612f8a9190616b99565b306040518463ffffffff1660e01b8152600401612fa9939291906178a1565b600060405180830381600087803b158015612fc357600080fd5b505af1158015612fd7573d6000803e3d6000fd5b505050505b61304d61016460009054906101000a900473ffffffffffffffffffffffffffffffffffffffff168361016b60009054906101000a900473ffffffffffffffffffffffffffffffffffffffff1673ffffffffffffffffffffffffffffffffffffffff1661409a9092919063ffffffff16565b5050565b61305b8282614120565b6130808160fb600085815260200190815260200160002061420190919063ffffffff16565b505050565b6130af7fb17d0a42cc710456bf9c3efb785dcd0cb93a0ac358113307b5c64b285b516b5c336121df565b806130c357506130c26000801b336121df565b5b613102576040517f08c379a00000000000000000000000000000000000000000000000000000000081526004016130f990617924565b60405180910390fd5b565b600033905090565b6131168282614231565b61313b8160fb600085815260200190815260200160002061431390919063ffffffff16565b505050565b600061316e7f360894a13ba1a3210667c828492db98dca3e2076cc3735a920a3ca505d382bbc60001b614343565b60000160009054906101000a900473ffffffffffffffffffffffffffffffffffffffff16905090565b6000801b6131a481612e8d565b426202a300610162546131b7919061686b565b106131f7576040517f08c379a00000000000000000000000000000000000000000000000000000000081526004016131ee906179b6565b60405180910390fd5b6131ff61200a565b5050565b61322f7f4910fdfa16fed3260ed0e7147f7cc6da11a60208b5b9406d12a635614ffd914360001b61434d565b60000160009054906101000a900460ff16156132535761324e83614357565b61336c565b8273ffffffffffffffffffffffffffffffffffffffff166352d1902d6040518163ffffffff1660e01b8152600401602060405180830381865afa9250505080156132bb57506040513d601f19601f820116820180604052508101906132b89190616e75565b60015b6132fa576040517f08c379a00000000000000000000000000000000000000000000000000000000081526004016132f190617a48565b60405180910390fd5b7f360894a13ba1a3210667c828492db98dca3e2076cc3735a920a3ca505d382bbc60001b811461335f576040517f08c379a000000000000000000000000000000000000000000000000000000000815260040161335690617ada565b60405180910390fd5b5061336b838383614410565b5b505050565b613379611d86565b6133b8576040517f08c379a00000000000000000000000000000000000000000000000000000000081526004016133af90617b46565b60405180910390fd5b600061012d60006101000a81548160ff0219169083151502179055507f5db9ee0a495bf2e6ff9c91a7834c1ba4fdd244a5e8aa4e537bd38aeae4b073aa6133fd613104565b60405161340a91906160ec565b60405180910390a1565b613477738166994d9ebbe5829ec86bd81258149b87facfd3600061016b60009054906101000a900473ffffffffffffffffffffffffffffffffffffffff1673ffffffffffffffffffffffffffffffffffffffff1661443c9092919063ffffffff16565b6134f9738166994d9ebbe5829ec86bd81258149b87facfd37fffffffffffffffffffffffffffffffffffffffffffffffffffffffffffffffff61016b60009054906101000a900473ffffffffffffffffffffffffffffffffffffffff1673ffffffffffffffffffffffffffffffffffffffff1661443c9092919063ffffffff16565b565b61350361458b565b61350b614611565b613513614bc8565b61351b6129b5565b565b60008060019054906101000a900460ff16156135945760018260ff1614801561354c575061354a30612df0565b155b61358b576040517f08c379a000000000000000000000000000000000000000000000000000000000815260040161358290617bd8565b60405180910390fd5b60009050613608565b8160ff1660008054906101000a900460ff1660ff16106135e9576040517f08c379a00000000000000000000000000000000000000000000000000000000081526004016135e090617bd8565b60405180910390fd5b816000806101000a81548160ff021916908360ff160217905550600190505b919050565b600060019054906101000a900460ff1661365c576040517f08c379a000000000000000000000000000000000000000000000000000000000815260040161365390617c6a565b60405180910390fd5b6136646150b4565b61366c615105565b613674615156565b603c610160819055506101c2610166819055506103e861016781905550612328610168819055506109c461016981905550600a61016a819055506136bb6000801b33613051565b6136c361200a565b8261016460006101000a81548173ffffffffffffffffffffffffffffffffffffffff021916908373ffffffffffffffffffffffffffffffffffffffff1602179055508160008151811061371957613718616def565b5b602002602001015161016360006101000a81548173ffffffffffffffffffffffffffffffffffffffff021916908373ffffffffffffffffffffffffffffffffffffffff1602179055508160018151811061377657613775616def565b5b602002602001015161016560006101000a81548173ffffffffffffffffffffffffffffffffffffffff021916908373ffffffffffffffffffffffffffffffffffffffff16021790555060005b81518110156138225761380f7fb17d0a42cc710456bf9c3efb785dcd0cb93a0ac358113307b5c64b285b516b5c83838151811061380257613801616def565b5b6020026020010151613051565b808061381a906170f1565b9150506137c2565b5061015f60405180604001604052804281526020018573ffffffffffffffffffffffffffffffffffffffff166377c7b8fc6040518163ffffffff1660e01b8152600401602060405180830381865afa158015613882573d6000803e3d6000fd5b505050506040513d601f19601f820116820180604052508101906138a69190616e33565b815250908060018154018082558091505060019003906000526020600020906002020160009091909190915060008201518160000155602082015181600101555050505050565b738166994d9ebbe5829ec86bd81258149b87facfd373ffffffffffffffffffffffffffffffffffffffff16632f940c7061016d54306040518363ffffffff1660e01b815260040161393f9291906172a5565b600060405180830381600087803b15801561395957600080fd5b505af115801561396d573d6000803e3d6000fd5b50505050565b61397b611d86565b156139bb576040517f08c379a00000000000000000000000000000000000000000000000000000000081526004016139b290616dcf565b60405180910390fd5b600161012d60006101000a81548160ff0219169083151502179055507f62e78cea01bee320cd4e420270b5ea74000d11b0c9f74754ebdbfc544b05a258613a00613104565b604051613a0d91906160ec565b60405180910390a1565b613a7a738166994d9ebbe5829ec86bd81258149b87facfd3600061016b60009054906101000a900473ffffffffffffffffffffffffffffffffffffffff1673ffffffffffffffffffffffffffffffffffffffff1661443c9092919063ffffffff16565b565b6000613a8b83600001836151c3565b60001c905092915050565b6000613aa4826000016151ee565b9050919050565b600061016b60009054906101000a900473ffffffffffffffffffffffffffffffffffffffff1673ffffffffffffffffffffffffffffffffffffffff166370a08231306040518263ffffffff1660e01b8152600401613b0991906160ec565b602060405180830381865afa158015613b26573d6000803e3d6000fd5b505050506040513d601f19601f82011682018060405250810190613b4a9190616e33565b905060008114613bdb57738166994d9ebbe5829ec86bd81258149b87facfd373ffffffffffffffffffffffffffffffffffffffff16638dbdbe6d61016d5483306040518463ffffffff1660e01b8152600401613ba8939291906178a1565b600060405180830381600087803b158015613bc257600080fd5b505af1158015613bd6573d6000803e3d6000fd5b505050505b50565b613be882826121df565b613c7757613c0d8173ffffffffffffffffffffffffffffffffffffffff1660146151ff565b613c1b8360001c60206151ff565b604051602001613c2c929190617d9c565b6040516020818303038152906040526040517f08c379a0000000000000000000000000000000000000000000000000000000008152600401613c6e9190617e0f565b60405180910390fd5b5050565b738166994d9ebbe5829ec86bd81258149b87facfd373ffffffffffffffffffffffffffffffffffffffff166318fccc7661016d54306040518363ffffffff1660e01b8152600401613ccd9291906172a5565b600060405180830381600087803b158015613ce757600080fd5b505af1158015613cfb573d6000803e3d6000fd5b50505050613de373f24bcf4d1e507740041c9cfd2dddb29585adce1e7321be370d5312f44cb42ce377bc9b8a0cef1a4c8373f24bcf4d1e507740041c9cfd2dddb29585adce1e73ffffffffffffffffffffffffffffffffffffffff166370a08231306040518263ffffffff1660e01b8152600401613d7991906160ec565b602060405180830381865afa158015613d96573d6000803e3d6000fd5b505050506040513d601f19601f82011682018060405250810190613dba9190616e33565b7fcde5a11a4acb4ee4c805352cec57e236bdbc383700020000000000000000001960001b61543b565b613deb614bc8565b6000738166994d9ebbe5829ec86bd81258149b87facfd373ffffffffffffffffffffffffffffffffffffffff166393f1a40b61016d54306040518363ffffffff1660e01b8152600401613e3f9291906172a5565b6040805180830381865afa158015613e5b573d6000803e3d6000fd5b505050506040513d601f19601f82011682018060405250810190613e7f91906172ce565b50905060008114613f1157738166994d9ebbe5829ec86bd81258149b87facfd373ffffffffffffffffffffffffffffffffffffffff1663d1abb90761016d5483306040518463ffffffff1660e01b8152600401613ede939291906178a1565b600060405180830381600087803b158015613ef857600080fd5b505af1158015613f0c573d6000803e3d6000fd5b505050505b600061016b60009054906101000a900473ffffffffffffffffffffffffffffffffffffffff1673ffffffffffffffffffffffffffffffffffffffff166370a08231306040518263ffffffff1660e01b8152600401613f6f91906160ec565b602060405180830381865afa158015613f8c573d6000803e3d6000fd5b505050506040513d601f19601f82011682018060405250810190613fb09190616e33565b90506000811461402c5761402b61016460009054906101000a900473ffffffffffffffffffffffffffffffffffffffff168261016b60009054906101000a900473ffffffffffffffffffffffffffffffffffffffff1673ffffffffffffffffffffffffffffffffffffffff1661409a9092919063ffffffff16565b5b5050565b60007f01ffc9a7000000000000000000000000000000000000000000000000000000007bffffffffffffffffffffffffffffffffffffffffffffffffffffffff1916827bffffffffffffffffffffffffffffffffffffffffffffffffffffffff1916149050919050565b61411b8363a9059cbb60e01b84846040516024016140b9929190617e31565b604051602081830303815290604052907bffffffffffffffffffffffffffffffffffffffffffffffffffffffff19166020820180517bffffffffffffffffffffffffffffffffffffffffffffffffffffffff83818316178352505050506156df565b505050565b61412a82826121df565b6141fd57600160c9600084815260200190815260200160002060000160008373ffffffffffffffffffffffffffffffffffffffff1673ffffffffffffffffffffffffffffffffffffffff16815260200190815260200160002060006101000a81548160ff0219169083151502179055506141a2613104565b73ffffffffffffffffffffffffffffffffffffffff168173ffffffffffffffffffffffffffffffffffffffff16837f2f8788117e7eff1d82e926ec794901d17c78024a50270940304540a733656f0d60405160405180910390a45b5050565b6000614229836000018373ffffffffffffffffffffffffffffffffffffffff1660001b6157a6565b905092915050565b61423b82826121df565b1561430f57600060c9600084815260200190815260200160002060000160008373ffffffffffffffffffffffffffffffffffffffff1673ffffffffffffffffffffffffffffffffffffffff16815260200190815260200160002060006101000a81548160ff0219169083151502179055506142b4613104565b73ffffffffffffffffffffffffffffffffffffffff168173ffffffffffffffffffffffffffffffffffffffff16837ff6391f5c32d9c69d2a47ea670b442974b53935d1edc7fd64eb21e047a839171b60405160405180910390a45b5050565b600061433b836000018373ffffffffffffffffffffffffffffffffffffffff1660001b615816565b905092915050565b6000819050919050565b6000819050919050565b61436081612df0565b61439f576040517f08c379a000000000000000000000000000000000000000000000000000000000815260040161439690617ecc565b60405180910390fd5b806143cc7f360894a13ba1a3210667c828492db98dca3e2076cc3735a920a3ca505d382bbc60001b614343565b60000160006101000a81548173ffffffffffffffffffffffffffffffffffffffff021916908373ffffffffffffffffffffffffffffffffffffffff16021790555050565b6144198361592a565b6000825111806144265750805b15614437576144358383615979565b505b505050565b60008114806144c6575060008373ffffffffffffffffffffffffffffffffffffffff1663dd62ed3e30856040518363ffffffff1660e01b8152600401614483929190617eec565b602060405180830381865afa1580156144a0573d6000803e3d6000fd5b505050506040513d601f19601f820116820180604052508101906144c49190616e33565b145b614505576040517f08c379a00000000000000000000000000000000000000000000000000000000081526004016144fc90617f87565b60405180910390fd5b6145868363095ea7b360e01b8484604051602401614524929190617e31565b604051602081830303815290604052907bffffffffffffffffffffffffffffffffffffffffffffffffffffffff19166020820180517bffffffffffffffffffffffffffffffffffffffffffffffffffffffff83818316178352505050506156df565b505050565b738166994d9ebbe5829ec86bd81258149b87facfd373ffffffffffffffffffffffffffffffffffffffff166318fccc7661016d54306040518363ffffffff1660e01b81526004016145dd9291906172a5565b600060405180830381600087803b1580156145f757600080fd5b505af115801561460b573d6000803e3d6000fd5b50505050565b60007321be370d5312f44cb42ce377bc9b8a0cef1a4c83905060008173ffffffffffffffffffffffffffffffffffffffff166370a08231306040518263ffffffff1660e01b815260040161466591906160ec565b602060405180830381865afa158015614682573d6000803e3d6000fd5b505050506040513d601f19601f820116820180604052508101906146a69190616e33565b905060006147e36127106101665473fa1fbb8ef55a4855e5688c0ee13ac3f20248628673ffffffffffffffffffffffffffffffffffffffff166370a08231306040518263ffffffff1660e01b815260040161470191906160ec565b602060405180830381865afa15801561471e573d6000803e3d6000fd5b505050506040513d601f19601f820116820180604052508101906147429190616e33565b61474c9190616adf565b6147569190616b68565b6101718054806020026020016040519081016040528092919081815260200182805480156147d957602002820191906000526020600020905b8160009054906101000a900473ffffffffffffffffffffffffffffffffffffffff1673ffffffffffffffffffffffffffffffffffffffff168152602001906001019080831161478f575b5050505050615a5d565b818373ffffffffffffffffffffffffffffffffffffffff166370a08231306040518263ffffffff1660e01b815260040161481d91906160ec565b602060405180830381865afa15801561483a573d6000803e3d6000fd5b505050506040513d601f19601f8201168201806040525081019061485e9190616e33565b6148689190616b99565b81614873919061686b565b90508273ffffffffffffffffffffffffffffffffffffffff166370a08231306040518263ffffffff1660e01b81526004016148ae91906160ec565b602060405180830381865afa1580156148cb573d6000803e3d6000fd5b505050506040513d601f19601f820116820180604052508101906148ef9190616e33565b91506149d573f24bcf4d1e507740041c9cfd2dddb29585adce1e7321be370d5312f44cb42ce377bc9b8a0cef1a4c8373f24bcf4d1e507740041c9cfd2dddb29585adce1e73ffffffffffffffffffffffffffffffffffffffff166370a08231306040518263ffffffff1660e01b815260040161496b91906160ec565b602060405180830381865afa158015614988573d6000803e3d6000fd5b505050506040513d601f19601f820116820180604052508101906149ac9190616e33565b7fcde5a11a4acb4ee4c805352cec57e236bdbc383700020000000000000000001960001b61543b565b61271061016654838573ffffffffffffffffffffffffffffffffffffffff166370a08231306040518263ffffffff1660e01b8152600401614a1691906160ec565b602060405180830381865afa158015614a33573d6000803e3d6000fd5b505050506040513d601f19601f82011682018060405250810190614a579190616e33565b614a619190616b99565b614a6b9190616adf565b614a759190616b68565b81614a80919061686b565b905060008114614bc35760006127106101675483614a9e9190616adf565b614aa89190616b68565b905060006127106101685484614abe9190616adf565b614ac89190616b68565b905060006127106101695483614ade9190616adf565b614ae89190616b68565b90508082614af69190616b99565b9150614b2333848873ffffffffffffffffffffffffffffffffffffffff1661409a9092919063ffffffff16565b614b7161016360009054906101000a900473ffffffffffffffffffffffffffffffffffffffff16838873ffffffffffffffffffffffffffffffffffffffff1661409a9092919063ffffffff16565b614bbf61016560009054906101000a900473ffffffffffffffffffffffffffffffffffffffff16828873ffffffffffffffffffffffffffffffffffffffff1661409a9092919063ffffffff16565b5050505b505050565b614ce673fa1fbb8ef55a4855e5688c0ee13ac3f20248628673ffffffffffffffffffffffffffffffffffffffff166370a08231306040518263ffffffff1660e01b8152600401614c1891906160ec565b602060405180830381865afa158015614c35573d6000803e3d6000fd5b505050506040513d601f19601f82011682018060405250810190614c599190616e33565b610170805480602002602001604051908101604052809291908181526020018280548015614cdc57602002820191906000526020600020905b8160009054906101000a900473ffffffffffffffffffffffffffffffffffffffff1673ffffffffffffffffffffffffffffffffffffffff1681526020019060010190808311614c92575b5050505050615a5d565b614dca7321be370d5312f44cb42ce377bc9b8a0cef1a4c83738d11ec38a3eb5e956b052f67da8bdc9bef8abf3e7321be370d5312f44cb42ce377bc9b8a0cef1a4c8373ffffffffffffffffffffffffffffffffffffffff166370a08231306040518263ffffffff1660e01b8152600401614d6091906160ec565b602060405180830381865afa158015614d7d573d6000803e3d6000fd5b505050506040513d601f19601f82011682018060405250810190614da19190616e33565b7f63386ef152e1ddef96c065636d6cc0165ff332910002000000000000000000a160001b61543b565b6000738d11ec38a3eb5e956b052f67da8bdc9bef8abf3e73ffffffffffffffffffffffffffffffffffffffff166370a08231306040518263ffffffff1660e01b8152600401614e1991906160ec565b602060405180830381865afa158015614e36573d6000803e3d6000fd5b505050506040513d601f19601f82011682018060405250810190614e5a9190616e33565b90506000811415614e6b57506150b2565b600060019050600061016c8054905067ffffffffffffffff811115614e9357614e92616404565b5b604051908082528060200260200182016040528015614ec15781602001602082028036833780820191505090505b509050828161016f5481518110614edb57614eda616def565b5b6020026020010181815250506000600190506000838383604051602001614f04939291906180dc565b6040516020818303038152906040529050614f1d615ec6565b61016c805480602002602001604051908101604052809291908181526020018280548015614fa057602002820191906000526020600020905b8160009054906101000a900473ffffffffffffffffffffffffffffffffffffffff1673ffffffffffffffffffffffffffffffffffffffff1681526020019060010190808311614f56575b5050505050816000018190525083816020018190525081816040018190525060008160600190151590811515815250506150237320dd72ed959b6147912c2e529f0a0c651c33c9ce87738d11ec38a3eb5e956b052f67da8bdc9bef8abf3e73ffffffffffffffffffffffffffffffffffffffff16615b5e9092919063ffffffff16565b7320dd72ed959b6147912c2e529f0a0c651c33c9ce73ffffffffffffffffffffffffffffffffffffffff1663b95cac2861016e543030856040518563ffffffff1660e01b81526004016150799493929190618362565b600060405180830381600087803b15801561509357600080fd5b505af11580156150a7573d6000803e3d6000fd5b505050505050505050505b565b600060019054906101000a900460ff16615103576040517f08c379a00000000000000000000000000000000000000000000000000000000081526004016150fa90617c6a565b60405180910390fd5b565b600060019054906101000a900460ff16615154576040517f08c379a000000000000000000000000000000000000000000000000000000000815260040161514b90617c6a565b60405180910390fd5b565b600060019054906101000a900460ff166151a5576040517f08c379a000000000000000000000000000000000000000000000000000000000815260040161519c90617c6a565b60405180910390fd5b600061012d60006101000a81548160ff021916908315150217905550565b60008260000182815481106151db576151da616def565b5b9060005260206000200154905092915050565b600081600001805490509050919050565b6060600060028360026152129190616adf565b61521c919061686b565b67ffffffffffffffff81111561523557615234616404565b5b6040519080825280601f01601f1916602001820160405280156152675781602001600182028036833780820191505090505b5090507f30000000000000000000000000000000000000000000000000000000000000008160008151811061529f5761529e616def565b5b60200101907effffffffffffffffffffffffffffffffffffffffffffffffffffffffffffff1916908160001a9053507f78000000000000000000000000000000000000000000000000000000000000008160018151811061530357615302616def565b5b60200101907effffffffffffffffffffffffffffffffffffffffffffffffffffffffffffff1916908160001a905350600060018460026153439190616adf565b61534d919061686b565b90505b60018111156153ed577f3031323334353637383961626364656600000000000000000000000000000000600f86166010811061538f5761538e616def565b5b1a60f81b8282815181106153a6576153a5616def565b5b60200101907effffffffffffffffffffffffffffffffffffffffffffffffffffffffffffff1916908160001a905350600485901c9450806153e69061780d565b9050615350565b5060008414615431576040517f08c379a0000000000000000000000000000000000000000000000000000000008152600401615428906183fa565b60405180910390fd5b8091505092915050565b8273ffffffffffffffffffffffffffffffffffffffff168473ffffffffffffffffffffffffffffffffffffffff1614806154755750600082145b1561547f576156d9565b615487615ef0565b818160000181815250506000816020019060018111156154aa576154a9617fa7565b5b908160018111156154be576154bd617fa7565b5b8152505084816040019073ffffffffffffffffffffffffffffffffffffffff16908173ffffffffffffffffffffffffffffffffffffffff168152505083816060019073ffffffffffffffffffffffffffffffffffffffff16908173ffffffffffffffffffffffffffffffffffffffff168152505082816080018181525050600060405160200161554e9190618455565b6040516020818303038152906040528160a0018190525061556d615f67565b30816000019073ffffffffffffffffffffffffffffffffffffffff16908173ffffffffffffffffffffffffffffffffffffffff1681525050600081602001901515908115158152505030816040019073ffffffffffffffffffffffffffffffffffffffff16908173ffffffffffffffffffffffffffffffffffffffff1681525050600081606001901515908115158152505061563e7320dd72ed959b6147912c2e529f0a0c651c33c9ce858873ffffffffffffffffffffffffffffffffffffffff16615b5e9092919063ffffffff16565b7320dd72ed959b6147912c2e529f0a0c651c33c9ce73ffffffffffffffffffffffffffffffffffffffff166352bbbe2983836001426040518563ffffffff1660e01b815260040161569294939291906185f7565b6020604051808303816000875af11580156156b1573d6000803e3d6000fd5b505050506040513d601f19601f820116820180604052508101906156d59190616e33565b5050505b50505050565b6000615741826040518060400160405280602081526020017f5361666545524332303a206c6f772d6c6576656c2063616c6c206661696c65648152508573ffffffffffffffffffffffffffffffffffffffff16615c709092919063ffffffff16565b90506000815111156157a15780806020019051810190615761919061866f565b6157a0576040517f08c379a00000000000000000000000000000000000000000000000000000000081526004016157979061870e565b60405180910390fd5b5b505050565b60006157b28383615c88565b61580b578260000182908060018154018082558091505060019003906000526020600020016000909190919091505582600001805490508360010160008481526020019081526020016000208190555060019050615810565b600090505b92915050565b6000808360010160008481526020019081526020016000205490506000811461591e5760006001826158489190616b99565b90506000600186600001805490506158609190616b99565b90508181146158cf57600086600001828154811061588157615880616def565b5b90600052602060002001549050808760000184815481106158a5576158a4616def565b5b90600052602060002001819055508387600101600083815260200190815260200160002081905550505b856000018054806158e3576158e261872e565b5b600190038181906000526020600020016000905590558560010160008681526020019081526020016000206000905560019350505050615924565b60009150505b92915050565b61593381614357565b8073ffffffffffffffffffffffffffffffffffffffff167fbc7cd75a20ee27fd9adebab32041f755214dbc6bffa90cc0225b39da2e5c2d3b60405160405180910390a250565b606061598483612df0565b6159c3576040517f08c379a00000000000000000000000000000000000000000000000000000000081526004016159ba906187cf565b60405180910390fd5b6000808473ffffffffffffffffffffffffffffffffffffffff16846040516159eb919061882b565b600060405180830381855af49150503d8060008114615a26576040519150601f19603f3d011682016040523d82523d6000602084013e615a2b565b606091505b5091509150615a5382826040518060600160405280602781526020016189cc60279139615cab565b9250505092915050565b600281511080615a6d5750600082145b15615a7757615b5a565b615ad173f491e7b69e4244ad4002bc14e878a34207e38c298383600081518110615aa457615aa3616def565b5b602002602001015173ffffffffffffffffffffffffffffffffffffffff16615b5e9092919063ffffffff16565b73f491e7b69e4244ad4002bc14e878a34207e38c2973ffffffffffffffffffffffffffffffffffffffff16635c11d7958360008430426040518663ffffffff1660e01b8152600401615b27959493929190618873565b600060405180830381600087803b158015615b4157600080fd5b505af1158015615b55573d6000803e3d6000fd5b505050505b5050565b6000818473ffffffffffffffffffffffffffffffffffffffff1663dd62ed3e30866040518363ffffffff1660e01b8152600401615b9c929190617eec565b602060405180830381865afa158015615bb9573d6000803e3d6000fd5b505050506040513d601f19601f82011682018060405250810190615bdd9190616e33565b615be7919061686b565b9050615c6a8463095ea7b360e01b8584604051602401615c08929190617e31565b604051602081830303815290604052907bffffffffffffffffffffffffffffffffffffffffffffffffffffffff19166020820180517bffffffffffffffffffffffffffffffffffffffffffffffffffffffff83818316178352505050506156df565b50505050565b6060615c7f8484600085615d12565b90509392505050565b600080836001016000848152602001908152602001600020541415905092915050565b60608315615cbb57829050615d0b565b600083511115615cce5782518084602001fd5b816040517f08c379a0000000000000000000000000000000000000000000000000000000008152600401615d029190617e0f565b60405180910390fd5b9392505050565b606082471015615d57576040517f08c379a0000000000000000000000000000000000000000000000000000000008152600401615d4e9061893f565b60405180910390fd5b615d6085612df0565b615d9f576040517f08c379a0000000000000000000000000000000000000000000000000000000008152600401615d96906189ab565b60405180910390fd5b6000808673ffffffffffffffffffffffffffffffffffffffff168587604051615dc8919061882b565b60006040518083038185875af1925050503d8060008114615e05576040519150601f19603f3d011682016040523d82523d6000602084013e615e0a565b606091505b5091509150615e1a828286615cab565b92505050949350505050565b828054828255906000526020600020908101928215615eb5579160200282015b82811115615eb457823573ffffffffffffffffffffffffffffffffffffffff168260006101000a81548173ffffffffffffffffffffffffffffffffffffffff021916908373ffffffffffffffffffffffffffffffffffffffff16021790555091602001919060010190615e46565b5b509050615ec29190615fbf565b5090565b60405180608001604052806060815260200160608152602001606081526020016000151581525090565b6040518060c001604052806000801916815260200160006001811115615f1957615f18617fa7565b5b8152602001600073ffffffffffffffffffffffffffffffffffffffff168152602001600073ffffffffffffffffffffffffffffffffffffffff16815260200160008152602001606081525090565b6040518060800160405280600073ffffffffffffffffffffffffffffffffffffffff168152602001600015158152602001600073ffffffffffffffffffffffffffffffffffffffff1681526020016000151581525090565b5b80821115615fd8576000816000905550600101615fc0565b5090565b6000604051905090565b600080fd5b600080fd5b60007fffffffff0000000000000000000000000000000000000000000000000000000082169050919050565b61602581615ff0565b811461603057600080fd5b50565b6000813590506160428161601c565b92915050565b60006020828403121561605e5761605d615fe6565b5b600061606c84828501616033565b91505092915050565b60008115159050919050565b61608a81616075565b82525050565b60006020820190506160a56000830184616081565b92915050565b600073ffffffffffffffffffffffffffffffffffffffff82169050919050565b60006160d6826160ab565b9050919050565b6160e6816160cb565b82525050565b600060208201905061610160008301846160dd565b92915050565b6000819050919050565b61611a81616107565b811461612557600080fd5b50565b60008135905061613781616111565b92915050565b60006020828403121561615357616152615fe6565b5b600061616184828501616128565b91505092915050565b61617381616107565b82525050565b600060208201905061618e600083018461616a565b92915050565b6000806000606084860312156161ad576161ac615fe6565b5b60006161bb86828701616128565b93505060206161cc86828701616128565b92505060406161dd86828701616128565b9150509250925092565b6000819050919050565b6161fa816161e7565b811461620557600080fd5b50565b600081359050616217816161f1565b92915050565b60006020828403121561623357616232615fe6565b5b600061624184828501616208565b91505092915050565b616253816161e7565b82525050565b600060208201905061626e600083018461624a565b92915050565b61627d816160cb565b811461628857600080fd5b50565b60008135905061629a81616274565b92915050565b600080604083850312156162b7576162b6615fe6565b5b60006162c585828601616208565b92505060206162d68582860161628b565b9150509250929050565b600080fd5b600080fd5b600080fd5b60008083601f840112616305576163046162e0565b5b8235905067ffffffffffffffff811115616322576163216162e5565b5b60208301915083602082028301111561633e5761633d6162ea565b5b9250929050565b6000806000806040858703121561635f5761635e615fe6565b5b600085013567ffffffffffffffff81111561637d5761637c615feb565b5b616389878288016162ef565b9450945050602085013567ffffffffffffffff8111156163ac576163ab615feb565b5b6163b8878288016162ef565b925092505092959194509250565b6000602082840312156163dc576163db615fe6565b5b60006163ea8482850161628b565b91505092915050565b6000601f19601f8301169050919050565b7f4e487b7100000000000000000000000000000000000000000000000000000000600052604160045260246000fd5b61643c826163f3565b810181811067ffffffffffffffff8211171561645b5761645a616404565b5b80604052505050565b600061646e615fdc565b905061647a8282616433565b919050565b600067ffffffffffffffff82111561649a57616499616404565b5b602082029050602081019050919050565b60006164be6164b98461647f565b616464565b905080838252602082019050602084028301858111156164e1576164e06162ea565b5b835b8181101561650a57806164f6888261628b565b8452602084019350506020810190506164e3565b5050509392505050565b600082601f830112616529576165286162e0565b5b81356165398482602086016164ab565b91505092915050565b600080600080600060a0868803121561655e5761655d615fe6565b5b600061656c8882890161628b565b955050602086013567ffffffffffffffff81111561658d5761658c615feb565b5b61659988828901616514565b945050604086013567ffffffffffffffff8111156165ba576165b9615feb565b5b6165c688828901616514565b93505060606165d78882890161628b565b92505060806165e888828901616128565b9150509295509295909350565b600080fd5b600067ffffffffffffffff82111561661557616614616404565b5b61661e826163f3565b9050602081019050919050565b82818337600083830152505050565b600061664d616648846165fa565b616464565b905082815260208101848484011115616669576166686165f5565b5b61667484828561662b565b509392505050565b600082601f830112616691576166906162e0565b5b81356166a184826020860161663a565b91505092915050565b600080604083850312156166c1576166c0615fe6565b5b60006166cf8582860161628b565b925050602083013567ffffffffffffffff8111156166f0576166ef615feb565b5b6166fc8582860161667c565b9150509250929050565b6000806040838503121561671d5761671c615fe6565b5b600061672b85828601616128565b925050602061673c85828601616128565b9150509250929050565b6000819050919050565b61675981616746565b82525050565b60006020820190506167746000830184616750565b92915050565b6000806040838503121561679157616790615fe6565b5b600061679f85828601616208565b92505060206167b085828601616128565b9150509250929050565b60006040820190506167cf600083018561616a565b6167dc602083018461616a565b9392505050565b6167ec81616746565b81146167f757600080fd5b50565b600081359050616809816167e3565b92915050565b60006020828403121561682557616824615fe6565b5b6000616833848285016167fa565b91505092915050565b7f4e487b7100000000000000000000000000000000000000000000000000000000600052601160045260246000fd5b600061687682616107565b915061688183616107565b9250827fffffffffffffffffffffffffffffffffffffffffffffffffffffffffffffffff038211156168b6576168b561683c565b5b828201905092915050565b600082825260208201905092915050565b7f73756d20213d2050455243454e545f44495649534f5200000000000000000000600082015250565b60006169086016836168c1565b9150616913826168d2565b602082019050919050565b60006020820190508181036000830152616937816168fb565b9050919050565b7f7374726174656769737420666565203e20535452415445474953545f4d41585f60008201527f4645450000000000000000000000000000000000000000000000000000000000602082015250565b600061699a6023836168c1565b91506169a58261693e565b604082019050919050565b600060208201905081810360008301526169c98161698d565b9050919050565b60006060820190506169e5600083018661616a565b6169f2602083018561616a565b6169ff604083018461616a565b949350505050565b7f217661756c740000000000000000000000000000000000000000000000000000600082015250565b6000616a3d6006836168c1565b9150616a4882616a07565b602082019050919050565b60006020820190508181036000830152616a6c81616a30565b9050919050565b7f696e76616c696420616d6f756e74000000000000000000000000000000000000600082015250565b6000616aa9600e836168c1565b9150616ab482616a73565b602082019050919050565b60006020820190508181036000830152616ad881616a9c565b9050919050565b6000616aea82616107565b9150616af583616107565b9250817fffffffffffffffffffffffffffffffffffffffffffffffffffffffffffffffff0483118215151615616b2e57616b2d61683c565b5b828202905092915050565b7f4e487b7100000000000000000000000000000000000000000000000000000000600052601260045260246000fd5b6000616b7382616107565b9150616b7e83616107565b925082616b8e57616b8d616b39565b5b828204905092915050565b6000616ba482616107565b9150616baf83616107565b925082821015616bc257616bc161683c565b5b828203905092915050565b7f416363657373436f6e74726f6c3a2063616e206f6e6c792072656e6f756e636560008201527f20726f6c657320666f722073656c660000000000000000000000000000000000602082015250565b6000616c29602f836168c1565b9150616c3482616bcd565b604082019050919050565b60006020820190508181036000830152616c5881616c1c565b9050919050565b7f46756e6374696f6e206d7573742062652063616c6c6564207468726f7567682060008201527f64656c656761746563616c6c0000000000000000000000000000000000000000602082015250565b6000616cbb602c836168c1565b9150616cc682616c5f565b604082019050919050565b60006020820190508181036000830152616cea81616cae565b9050919050565b7f46756e6374696f6e206d7573742062652063616c6c6564207468726f7567682060008201527f6163746976652070726f78790000000000000000000000000000000000000000602082015250565b6000616d4d602c836168c1565b9150616d5882616cf1565b604082019050919050565b60006020820190508181036000830152616d7c81616d40565b9050919050565b7f5061757361626c653a2070617573656400000000000000000000000000000000600082015250565b6000616db96010836168c1565b9150616dc482616d83565b602082019050919050565b60006020820190508181036000830152616de881616dac565b9050919050565b7f4e487b7100000000000000000000000000000000000000000000000000000000600052603260045260246000fd5b600081519050616e2d81616111565b92915050565b600060208284031215616e4957616e48615fe6565b5b6000616e5784828501616e1e565b91505092915050565b600081519050616e6f816161f1565b92915050565b600060208284031215616e8b57616e8a615fe6565b5b6000616e9984828501616e60565b91505092915050565b600067ffffffffffffffff821115616ebd57616ebc616404565b5b602082029050602081019050919050565b6000616ed9826160cb565b9050919050565b616ee981616ece565b8114616ef457600080fd5b50565b600081519050616f0681616ee0565b92915050565b6000616f1f616f1a84616ea2565b616464565b90508083825260208201905060208402830185811115616f4257616f416162ea565b5b835b81811015616f6b5780616f578882616ef7565b845260208401935050602081019050616f44565b5050509392505050565b600082601f830112616f8a57616f896162e0565b5b8151616f9a848260208601616f0c565b91505092915050565b600067ffffffffffffffff821115616fbe57616fbd616404565b5b602082029050602081019050919050565b6000616fe2616fdd84616fa3565b616464565b90508083825260208201905060208402830185811115617005576170046162ea565b5b835b8181101561702e578061701a8882616e1e565b845260208401935050602081019050617007565b5050509392505050565b600082601f83011261704d5761704c6162e0565b5b815161705d848260208601616fcf565b91505092915050565b60008060006060848603121561707f5761707e615fe6565b5b600084015167ffffffffffffffff81111561709d5761709c615feb565b5b6170a986828701616f75565b935050602084015167ffffffffffffffff8111156170ca576170c9615feb565b5b6170d686828701617038565b92505060406170e786828701616e1e565b9150509250925092565b60006170fc82616107565b91507fffffffffffffffffffffffffffffffffffffffffffffffffffffffffffffffff82141561712f5761712e61683c565b5b600182019050919050565b6000819050919050565b600060ff82169050919050565b6000819050919050565b600061717661717161716c8461713a565b617151565b617144565b9050919050565b6171868161715b565b82525050565b60006020820190506171a1600083018461717d565b92915050565b7f555550535570677261646561626c653a206d757374206e6f742062652063616c60008201527f6c6564207468726f7567682064656c656761746563616c6c0000000000000000602082015250565b60006172036038836168c1565b915061720e826171a7565b604082019050919050565b60006020820190508181036000830152617232816171f6565b9050919050565b7f66656520746f2068696768210000000000000000000000000000000000000000600082015250565b600061726f600c836168c1565b915061727a82617239565b602082019050919050565b6000602082019050818103600083015261729e81617262565b9050919050565b60006040820190506172ba600083018561616a565b6172c760208301846160dd565b9392505050565b600080604083850312156172e5576172e4615fe6565b5b60006172f385828601616e1e565b925050602061730485828601616e1e565b9150509250929050565b600061731982616746565b91507f800000000000000000000000000000000000000000000000000000000000000082141561734c5761734b61683c565b5b816000039050919050565b600081519050919050565b600082825260208201905092915050565b6000819050602082019050919050565b61738c816160cb565b82525050565b600061739e8383617383565b60208301905092915050565b6000602082019050919050565b60006173c282617357565b6173cc8185617362565b93506173d783617373565b8060005b838110156174085781516173ef8882617392565b97506173fa836173aa565b9250506001810190506173db565b5085935050505092915050565b600060408201905061742a600083018561616a565b818103602083015261743c81846173b7565b90509392505050565b60006020828403121561745b5761745a615fe6565b5b600082015167ffffffffffffffff81111561747957617478615feb565b5b61748584828501617038565b91505092915050565b60008151905061749d81616274565b92915050565b6000602082840312156174b9576174b8615fe6565b5b60006174c78482850161748e565b91505092915050565b600081549050919050565b60008190508160005260206000209050919050565b60008160001c9050919050565b600073ffffffffffffffffffffffffffffffffffffffff82169050919050565b600061753061752b836174f0565b6174fd565b9050919050565b6000617543825461751d565b9050919050565b6000600182019050919050565b6000617562826174d0565b61756c8185617362565b9350617577836174db565b8060005b838110156175af5761758c82617537565b6175968882617392565b97506175a18361754a565b92505060018101905061757b565b5085935050505092915050565b60006040820190506175d1600083018561616a565b81810360208301526175e38184617557565b90509392505050565b7f46656520546f6f20486967680000000000000000000000000000000000000000600082015250565b6000617622600c836168c1565b915061762d826175ec565b602082019050919050565b6000602082019050818103600083015261765181617615565b9050919050565b7f2130000000000000000000000000000000000000000000000000000000000000600082015250565b600061768e6002836168c1565b915061769982617658565b602082019050919050565b600060208201905081810360008301526176bd81617681565b9050919050565b7f6e656564206174206c656173742032206c6f6720656e74726965730000000000600082015250565b60006176fa601b836168c1565b9150617705826176c4565b602082019050919050565b60006020820190508181036000830152617729816176ed565b9050919050565b600061773b82616746565b915061774683616746565b9250817f7fffffffffffffffffffffffffffffffffffffffffffffffffffffffffffffff038313600083121516156177815761778061683c565b5b817f80000000000000000000000000000000000000000000000000000000000000000383126000831216156177b9576177b861683c565b5b828201905092915050565b60006177cf82616746565b91507f7fffffffffffffffffffffffffffffffffffffffffffffffffffffffffffffff8214156178025761780161683c565b5b600182019050919050565b600061781882616107565b9150600082141561782c5761782b61683c565b5b600182039050919050565b600061784282616746565b915061784d83616746565b92508261785d5761785c616b39565b5b600160000383147f8000000000000000000000000000000000000000000000000000000000000000831416156178965761789561683c565b5b828205905092915050565b60006060820190506178b6600083018661616a565b6178c3602083018561616a565b6178d060408301846160dd565b949350505050565b7f4e6f7420617574686f72697a6564000000000000000000000000000000000000600082015250565b600061790e600e836168c1565b9150617919826178d8565b602082019050919050565b6000602082019050818103600083015261793d81617901565b9050919050565b7f636f6f6c646f776e206e6f7420696e69746961746564206f72207374696c6c2060008201527f6163746976650000000000000000000000000000000000000000000000000000602082015250565b60006179a06026836168c1565b91506179ab82617944565b604082019050919050565b600060208201905081810360008301526179cf81617993565b9050919050565b7f45524331393637557067726164653a206e657720696d706c656d656e7461746960008201527f6f6e206973206e6f742055555053000000000000000000000000000000000000602082015250565b6000617a32602e836168c1565b9150617a3d826179d6565b604082019050919050565b60006020820190508181036000830152617a6181617a25565b9050919050565b7f45524331393637557067726164653a20756e737570706f727465642070726f7860008201527f6961626c65555549440000000000000000000000000000000000000000000000602082015250565b6000617ac46029836168c1565b9150617acf82617a68565b604082019050919050565b60006020820190508181036000830152617af381617ab7565b9050919050565b7f5061757361626c653a206e6f7420706175736564000000000000000000000000600082015250565b6000617b306014836168c1565b9150617b3b82617afa565b602082019050919050565b60006020820190508181036000830152617b5f81617b23565b9050919050565b7f496e697469616c697a61626c653a20636f6e747261637420697320616c72656160008201527f647920696e697469616c697a6564000000000000000000000000000000000000602082015250565b6000617bc2602e836168c1565b9150617bcd82617b66565b604082019050919050565b60006020820190508181036000830152617bf181617bb5565b9050919050565b7f496e697469616c697a61626c653a20636f6e7472616374206973206e6f74206960008201527f6e697469616c697a696e67000000000000000000000000000000000000000000602082015250565b6000617c54602b836168c1565b9150617c5f82617bf8565b604082019050919050565b60006020820190508181036000830152617c8381617c47565b9050919050565b600081905092915050565b7f416363657373436f6e74726f6c3a206163636f756e7420000000000000000000600082015250565b6000617ccb601783617c8a565b9150617cd682617c95565b601782019050919050565b600081519050919050565b60005b83811015617d0a578082015181840152602081019050617cef565b83811115617d19576000848401525b50505050565b6000617d2a82617ce1565b617d348185617c8a565b9350617d44818560208601617cec565b80840191505092915050565b7f206973206d697373696e6720726f6c6520000000000000000000000000000000600082015250565b6000617d86601183617c8a565b9150617d9182617d50565b601182019050919050565b6000617da782617cbe565b9150617db38285617d1f565b9150617dbe82617d79565b9150617dca8284617d1f565b91508190509392505050565b6000617de182617ce1565b617deb81856168c1565b9350617dfb818560208601617cec565b617e04816163f3565b840191505092915050565b60006020820190508181036000830152617e298184617dd6565b905092915050565b6000604082019050617e4660008301856160dd565b617e53602083018461616a565b9392505050565b7f455243313936373a206e657720696d706c656d656e746174696f6e206973206e60008201527f6f74206120636f6e747261637400000000000000000000000000000000000000602082015250565b6000617eb6602d836168c1565b9150617ec182617e5a565b604082019050919050565b60006020820190508181036000830152617ee581617ea9565b9050919050565b6000604082019050617f0160008301856160dd565b617f0e60208301846160dd565b9392505050565b7f5361666545524332303a20617070726f76652066726f6d206e6f6e2d7a65726f60008201527f20746f206e6f6e2d7a65726f20616c6c6f77616e636500000000000000000000602082015250565b6000617f716036836168c1565b9150617f7c82617f15565b604082019050919050565b60006020820190508181036000830152617fa081617f64565b9050919050565b7f4e487b7100000000000000000000000000000000000000000000000000000000600052602160045260246000fd5b60048110617fe757617fe6617fa7565b5b50565b6000819050617ff882617fd6565b919050565b600061800882617fea565b9050919050565b61801881617ffd565b82525050565b600081519050919050565b600082825260208201905092915050565b6000819050602082019050919050565b61805381616107565b82525050565b6000618065838361804a565b60208301905092915050565b6000602082019050919050565b60006180898261801e565b6180938185618029565b935061809e8361803a565b8060005b838110156180cf5781516180b68882618059565b97506180c183618071565b9250506001810190506180a2565b5085935050505092915050565b60006060820190506180f1600083018661800f565b8181036020830152618103818561807e565b9050618112604083018461616a565b949350505050565b600081519050919050565b600082825260208201905092915050565b6000819050602082019050919050565b600061816161815c618157846160ab565b617151565b6160ab565b9050919050565b600061817382618146565b9050919050565b600061818582618168565b9050919050565b6181958161817a565b82525050565b60006181a7838361818c565b60208301905092915050565b6000602082019050919050565b60006181cb8261811a565b6181d58185618125565b93506181e083618136565b8060005b838110156182115781516181f8888261819b565b9750618203836181b3565b9250506001810190506181e4565b5085935050505092915050565b600082825260208201905092915050565b600061823a8261801e565b618244818561821e565b935061824f8361803a565b8060005b838110156182805781516182678882618059565b975061827283618071565b925050600181019050618253565b5085935050505092915050565b600081519050919050565b600082825260208201905092915050565b60006182b48261828d565b6182be8185618298565b93506182ce818560208601617cec565b6182d7816163f3565b840191505092915050565b6182eb81616075565b82525050565b6000608083016000830151848203600086015261830e82826181c0565b91505060208301518482036020860152618328828261822f565b9150506040830151848203604086015261834282826182a9565b915050606083015161835760608601826182e2565b508091505092915050565b6000608082019050618377600083018761624a565b61838460208301866160dd565b61839160408301856160dd565b81810360608301526183a381846182f1565b905095945050505050565b7f537472696e67733a20686578206c656e67746820696e73756666696369656e74600082015250565b60006183e46020836168c1565b91506183ef826183ae565b602082019050919050565b60006020820190508181036000830152618413816183d7565b9050919050565b6000819050919050565b600061843f61843a6184358461841a565b617151565b617144565b9050919050565b61844f81618424565b82525050565b600060208201905061846a6000830184618446565b92915050565b618479816161e7565b82525050565b600281106184905761848f617fa7565b5b50565b60008190506184a18261847f565b919050565b60006184b182618493565b9050919050565b6184c1816184a6565b82525050565b600060c0830160008301516184df6000860182618470565b5060208301516184f260208601826184b8565b506040830151618505604086018261818c565b506060830151618518606086018261818c565b50608083015161852b608086018261804a565b5060a083015184820360a086015261854382826182a9565b9150508091505092915050565b600061855b826160ab565b9050919050565b61856b81618550565b82525050565b6080820160008201516185876000850182617383565b50602082015161859a60208501826182e2565b5060408201516185ad6040850182618562565b5060608201516185c060608501826182e2565b50505050565b60006185e16185dc6185d78461713a565b617151565b616107565b9050919050565b6185f1816185c6565b82525050565b600060e082019050818103600083015261861181876184c7565b90506186206020830186618571565b61862d60a08301856185e8565b61863a60c083018461616a565b95945050505050565b61864c81616075565b811461865757600080fd5b50565b60008151905061866981618643565b92915050565b60006020828403121561868557618684615fe6565b5b60006186938482850161865a565b91505092915050565b7f5361666545524332303a204552433230206f7065726174696f6e20646964206e60008201527f6f74207375636365656400000000000000000000000000000000000000000000602082015250565b60006186f8602a836168c1565b91506187038261869c565b604082019050919050565b60006020820190508181036000830152618727816186eb565b9050919050565b7f4e487b7100000000000000000000000000000000000000000000000000000000600052603160045260246000fd5b7f416464726573733a2064656c65676174652063616c6c20746f206e6f6e2d636f60008201527f6e74726163740000000000000000000000000000000000000000000000000000602082015250565b60006187b96026836168c1565b91506187c48261875d565b604082019050919050565b600060208201905081810360008301526187e8816187ac565b9050919050565b600081905092915050565b60006188058261828d565b61880f81856187ef565b935061881f818560208601617cec565b80840191505092915050565b600061883782846187fa565b915081905092915050565b600061885d6188586188538461841a565b617151565b616107565b9050919050565b61886d81618842565b82525050565b600060a082019050618888600083018861616a565b6188956020830187618864565b81810360408301526188a781866173b7565b90506188b660608301856160dd565b6188c3608083018461616a565b9695505050505050565b7f416464726573733a20696e73756666696369656e742062616c616e636520666f60008201527f722063616c6c0000000000000000000000000000000000000000000000000000602082015250565b60006189296026836168c1565b9150618934826188cd565b604082019050919050565b600060208201905081810360008301526189588161891c565b9050919050565b7f416464726573733a2063616c6c20746f206e6f6e2d636f6e7472616374000000600082015250565b6000618995601d836168c1565b91506189a08261895f565b602082019050919050565b600060208201905081810360008301526189c481618988565b905091905056fe416464726573733a206c6f772d6c6576656c2064656c65676174652063616c6c206661696c6564a26469706673582212207e3d30cfbf2347e926205272c47632f4530c25071f469021d79aab47de5b637764736f6c634300080a0033",
  "immutableReferences": {
    "1144": [
      {
        "length": 32,
        "start": 5273
      },
      {
        "length": 32,
        "start": 5416
      },
      {
        "length": 32,
        "start": 7012
      },
      {
        "length": 32,
        "start": 7155
      },
      {
        "length": 32,
        "start": 7338
      }
    ]
  },
  "source": "// SPDX-License-Identifier: MIT\r\n\r\npragma solidity ^0.8.0;\r\n\r\nimport \"./abstract/ReaperBaseStrategyv1_1.sol\";\r\nimport \"./interfaces/IAsset.sol\";\r\nimport \"./interfaces/IBasePool.sol\";\r\nimport \"./interfaces/IBaseWeightedPool.sol\";\r\nimport \"./interfaces/IBeetVault.sol\";\r\nimport \"./interfaces/IFHMRewarder.sol\";\r\nimport \"./interfaces/IMasterChef.sol\";\r\nimport \"./interfaces/IUniswapV2Router02.sol\";\r\nimport \"@openzeppelin/contracts-upgradeable/token/ERC20/utils/SafeERC20Upgradeable.sol\";\r\nimport \"@openzeppelin/contracts-upgradeable/utils/math/MathUpgradeable.sol\";\r\n\r\n/**\r\n * @dev LP compounding strategy for Beethoven-X pools that have DAI as one of the tokens.\r\n */\r\ncontract ReaperStrategyBeethovenDaiUnderlying is ReaperBaseStrategyv1_1 {\r\n    using SafeERC20Upgradeable for IERC20Upgradeable;\r\n\r\n    // 3rd-party contract addresses\r\n    address public constant BEET_VAULT = address(0x20dd72Ed959b6147912C2e529F0a0C651c33c9ce);\r\n    address public constant MASTER_CHEF = address(0x8166994d9ebBe5829EC86Bd81258149B87faCfd3);\r\n    address public constant SPOOKY_ROUTER = address(0xF491e7B69E4244ad4002BC14e878a34207E38c29);\r\n\r\n    /**\r\n     * @dev Tokens Used:\r\n     * {WFTM} - Required for liquidity routing when doing swaps.\r\n     * {DAI} - Token used to join the Beethoven-X pool using the rewards.\r\n     * {BEETS} - Reward token for depositing LP into MasterChef.\r\n     * {FHM} - Secondary reward token for depositing LP into MasterChef.\r\n     * {want} - LP token for the Beethoven-x pool.\r\n     * {underlyings} - Array of IAsset type to represent the underlying tokens of the pool.\r\n     */\r\n    address public constant WFTM = address(0x21be370D5312f44cB42ce377BC9b8a0cEF1A4C83);\r\n    address public constant DAI = address(0x8D11eC38a3EB5E956B052f67Da8Bdc9bef8Abf3E);\r\n    address public constant BEETS = address(0xF24Bcf4d1e507740041C9cFd2DddB29585aDCe1e);\r\n    address public constant FHM = address(0xfa1FBb8Ef55A4855E5688C0eE13aC3f202486286);\r\n    address public want;\r\n    IAsset[] underlyings;\r\n\r\n    // pools used to swap tokens\r\n    bytes32 public constant WFTM_BEETS_POOL = 0xcde5a11a4acb4ee4c805352cec57e236bdbc3837000200000000000000000019;\r\n    bytes32 public constant WFTM_DAI_POOL = 0x63386ef152e1ddef96c065636d6cc0165ff332910002000000000000000000a1;\r\n\r\n    /**\r\n     * @dev Strategy variables\r\n     * {mcPoolId} - ID of MasterChef pool in which to deposit LP tokens\r\n     * {beetsPoolId} - bytes32 ID of the Beethoven-X pool corresponding to {want}\r\n     * {daiPosition} - Index of {DAI} in the Beethoven-X pool\r\n     */\r\n    uint256 public mcPoolId;\r\n    bytes32 public beetsPoolId;\r\n    uint256 public daiPosition;\r\n\r\n    /**\r\n     * @dev More strategy variables, need to be initialized post-upgrade\r\n     * {fhmToDaiPath} - Path used to swap {FHM} to {DAI}.\r\n     * {fhmToWftmPath} - Path used to swap {FHM} to {WFTM}.\r\n     */\r\n    address[] public fhmToDaiPath;\r\n    address[] public fhmToWftmPath;\r\n\r\n    /**\r\n     * @dev Initializes the strategy. Sets parameters and saves routes.\r\n     * @notice see documentation for each variable above its respective declaration.\r\n     */\r\n    function initialize(\r\n        address _vault,\r\n        address[] memory _feeRemitters,\r\n        address[] memory _strategists,\r\n        address _want,\r\n        uint256 _mcPoolId\r\n    ) public initializer {\r\n        __ReaperBaseStrategy_init(_vault, _feeRemitters, _strategists);\r\n        want = _want;\r\n        mcPoolId = _mcPoolId;\r\n        beetsPoolId = IBasePool(want).getPoolId();\r\n\r\n        (IERC20Upgradeable[] memory tokens, , ) = IBeetVault(BEET_VAULT).getPoolTokens(beetsPoolId);\r\n        for (uint256 i = 0; i < tokens.length; i++) {\r\n            if (address(tokens[i]) == DAI) {\r\n                daiPosition = i;\r\n            }\r\n\r\n            underlyings.push(IAsset(address(tokens[i])));\r\n        }\r\n\r\n        _giveAllowances();\r\n    }\r\n\r\n    /**\r\n     * @dev Function that puts the funds to work.\r\n     *      It gets called whenever someone deposits in the strategy's vault contract.\r\n     */\r\n    function _deposit() internal override {\r\n        uint256 wantBalance = IERC20Upgradeable(want).balanceOf(address(this));\r\n        if (wantBalance != 0) {\r\n            IMasterChef(MASTER_CHEF).deposit(mcPoolId, wantBalance, address(this));\r\n        }\r\n    }\r\n\r\n    /**\r\n     * @dev Withdraws funds and sends them back to the vault.\r\n     */\r\n    function _withdraw(uint256 _amount) internal override {\r\n        uint256 wantBal = IERC20Upgradeable(want).balanceOf(address(this));\r\n        if (wantBal < _amount) {\r\n            IMasterChef(MASTER_CHEF).withdrawAndHarvest(mcPoolId, _amount - wantBal, address(this));\r\n        }\r\n\r\n        IERC20Upgradeable(want).safeTransfer(vault, _amount);\r\n    }\r\n\r\n    /**\r\n     * @dev Core function of the strat, in charge of collecting and re-investing rewards.\r\n     *      1. Claims {BEETS} from the {MASTER_CHEF}.\r\n     *      2. Swaps {BEETS} to {WFTM} and charges fees.\r\n     *      3. Swaps {WFTM} to {DAI} and joins {beetsPoolId} using {DAI}.\r\n     *      4. Deposits.\r\n     */\r\n    function _harvestCore() internal override {\r\n        _claimRewards();\r\n        _swapRewardsAndChargeFees();\r\n        _joinPool();\r\n        deposit();\r\n    }\r\n\r\n    function _claimRewards() internal {\r\n        IMasterChef(MASTER_CHEF).harvest(mcPoolId, address(this));\r\n    }\r\n\r\n    /**\r\n     * @dev Core harvest function.\r\n     *      Swaps {BEETS} to {WFTM}, then charges fees based on the amount gained from rewards\r\n     */\r\n    function _swapRewardsAndChargeFees() internal {\r\n        IERC20Upgradeable wftm = IERC20Upgradeable(WFTM);\r\n        uint256 startingWftmBal = wftm.balanceOf(address(this));\r\n        uint256 wftmFee = 0;\r\n\r\n        _spookySwap((IERC20Upgradeable(FHM).balanceOf(address(this)) * totalFee) / PERCENT_DIVISOR, fhmToWftmPath);\r\n        wftmFee += wftm.balanceOf(address(this)) - startingWftmBal;\r\n        startingWftmBal = wftm.balanceOf(address(this));\r\n\r\n        _beetSwap(BEETS, WFTM, IERC20Upgradeable(BEETS).balanceOf(address(this)), WFTM_BEETS_POOL);\r\n        wftmFee += ((wftm.balanceOf(address(this)) - startingWftmBal) * totalFee) / PERCENT_DIVISOR;\r\n\r\n        if (wftmFee != 0) {\r\n            uint256 callFeeToUser = (wftmFee * callFee) / PERCENT_DIVISOR;\r\n            uint256 treasuryFeeToVault = (wftmFee * treasuryFee) / PERCENT_DIVISOR;\r\n            uint256 feeToStrategist = (treasuryFeeToVault * strategistFee) / PERCENT_DIVISOR;\r\n            treasuryFeeToVault -= feeToStrategist;\r\n\r\n            wftm.safeTransfer(msg.sender, callFeeToUser);\r\n            wftm.safeTransfer(treasury, treasuryFeeToVault);\r\n            wftm.safeTransfer(strategistRemitter, feeToStrategist);\r\n        }\r\n    }\r\n\r\n    /**\r\n     * @dev Core harvest function. Swaps {_amount} of {_from} to {_to} using {_poolId}.\r\n     */\r\n    function _beetSwap(\r\n        address _from,\r\n        address _to,\r\n        uint256 _amount,\r\n        bytes32 _poolId\r\n    ) internal {\r\n        if (_from == _to || _amount == 0) {\r\n            return;\r\n        }\r\n\r\n        IBeetVault.SingleSwap memory singleSwap;\r\n        singleSwap.poolId = _poolId;\r\n        singleSwap.kind = IBeetVault.SwapKind.GIVEN_IN;\r\n        singleSwap.assetIn = IAsset(_from);\r\n        singleSwap.assetOut = IAsset(_to);\r\n        singleSwap.amount = _amount;\r\n        singleSwap.userData = abi.encode(0);\r\n\r\n        IBeetVault.FundManagement memory funds;\r\n        funds.sender = address(this);\r\n        funds.fromInternalBalance = false;\r\n        funds.recipient = payable(address(this));\r\n        funds.toInternalBalance = false;\r\n\r\n        IERC20Upgradeable(_from).safeIncreaseAllowance(BEET_VAULT, _amount);\r\n        IBeetVault(BEET_VAULT).swap(singleSwap, funds, 1, block.timestamp);\r\n    }\r\n\r\n    /**\r\n     * @dev Helper function to swap tokens given an {_amount} and swap {_path}.\r\n     */\r\n    function _spookySwap(uint256 _amount, address[] memory _path) internal {\r\n        if (_path.length < 2 || _amount == 0) {\r\n            return;\r\n        }\r\n\r\n        IERC20Upgradeable(_path[0]).safeIncreaseAllowance(SPOOKY_ROUTER, _amount);\r\n        IUniswapV2Router02(SPOOKY_ROUTER).swapExactTokensForTokensSupportingFeeOnTransferTokens(\r\n            _amount,\r\n            0,\r\n            _path,\r\n            address(this),\r\n            block.timestamp\r\n        );\r\n    }\r\n\r\n    /**\r\n     * @dev Core harvest function. Joins {beetsPoolId} using {USDC} balance;\r\n     */\r\n    function _joinPool() internal {\r\n        _spookySwap(IERC20Upgradeable(FHM).balanceOf(address(this)), fhmToDaiPath);\r\n        _beetSwap(WFTM, DAI, IERC20Upgradeable(WFTM).balanceOf(address(this)), WFTM_DAI_POOL);\r\n\r\n        uint256 daiBalance = IERC20Upgradeable(DAI).balanceOf(address(this));\r\n        if (daiBalance == 0) {\r\n            return;\r\n        }\r\n\r\n        IBaseWeightedPool.JoinKind joinKind = IBaseWeightedPool.JoinKind.EXACT_TOKENS_IN_FOR_BPT_OUT;\r\n        uint256[] memory amountsIn = new uint256[](underlyings.length);\r\n        amountsIn[daiPosition] = daiBalance;\r\n        uint256 minAmountOut = 1;\r\n        bytes memory userData = abi.encode(joinKind, amountsIn, minAmountOut);\r\n\r\n        IBeetVault.JoinPoolRequest memory request;\r\n        request.assets = underlyings;\r\n        request.maxAmountsIn = amountsIn;\r\n        request.userData = userData;\r\n        request.fromInternalBalance = false;\r\n\r\n        IERC20Upgradeable(DAI).safeIncreaseAllowance(BEET_VAULT, daiBalance);\r\n        IBeetVault(BEET_VAULT).joinPool(beetsPoolId, address(this), address(this), request);\r\n    }\r\n\r\n    /**\r\n     * @dev Function to calculate the total {want} held by the strat.\r\n     *      It takes into account both the funds in hand, plus the funds in the MasterChef.\r\n     */\r\n    function balanceOf() public view override returns (uint256) {\r\n        (uint256 amount, ) = IMasterChef(MASTER_CHEF).userInfo(mcPoolId, address(this));\r\n        return amount + IERC20Upgradeable(want).balanceOf(address(this));\r\n    }\r\n\r\n    /**\r\n     * @dev Returns the approx amount of profit from harvesting.\r\n     *      Profit is denominated in WFTM, and takes fees into account.\r\n     */\r\n    function estimateHarvest() external view override returns (uint256 profit, uint256 callFeeToUser) {\r\n        IMasterChef masterChef = IMasterChef(MASTER_CHEF);\r\n        uint256 pendingReward = masterChef.pendingBeets(mcPoolId, address(this));\r\n        uint256 totalRewards = pendingReward + IERC20Upgradeable(BEETS).balanceOf(address(this));\r\n\r\n        if (totalRewards != 0) {\r\n            // use SPOOKY_ROUTER here since IBeetVault doesn't have a view query function\r\n            address[] memory beetsToWftmPath = new address[](2);\r\n            beetsToWftmPath[0] = BEETS;\r\n            beetsToWftmPath[1] = WFTM;\r\n            profit += IUniswapV2Router01(SPOOKY_ROUTER).getAmountsOut(totalRewards, beetsToWftmPath)[1];\r\n        }\r\n\r\n        IFHMRewarder rewarder = IFHMRewarder(masterChef.rewarder(mcPoolId));\r\n        pendingReward = rewarder.pendingToken(mcPoolId, address(this));\r\n        totalRewards = pendingReward + IERC20Upgradeable(FHM).balanceOf(address(this));\r\n        if (totalRewards != 0) {\r\n            profit += IUniswapV2Router02(SPOOKY_ROUTER).getAmountsOut(totalRewards, fhmToWftmPath)[1];\r\n        }\r\n\r\n        profit += IERC20Upgradeable(WFTM).balanceOf(address(this));\r\n\r\n        uint256 wftmFee = (profit * totalFee) / PERCENT_DIVISOR;\r\n        callFeeToUser = (wftmFee * callFee) / PERCENT_DIVISOR;\r\n        profit -= wftmFee;\r\n    }\r\n\r\n    /**\r\n     * @notice Admin-only function to set FHM swap paths post-upgrade.\r\n     */\r\n    function setPathsPostUpgrade(address[] calldata _fhmToWftmPath, address[] calldata _fhmToDaiPath) external {\r\n        _onlyStrategistOrOwner();\r\n        fhmToWftmPath = _fhmToWftmPath;\r\n        fhmToDaiPath = _fhmToDaiPath;\r\n    }\r\n\r\n    /**\r\n     * @dev Function to retire the strategy. Claims all rewards and withdraws\r\n     *      all principal from external contracts, and sends everything back to\r\n     *      the vault. Can only be called by strategist or owner.\r\n     *\r\n     * Note: this is not an emergency withdraw function. For that, see panic().\r\n     */\r\n    function _retireStrat() internal override {\r\n        IMasterChef(MASTER_CHEF).harvest(mcPoolId, address(this));\r\n        _beetSwap(BEETS, WFTM, IERC20Upgradeable(BEETS).balanceOf(address(this)), WFTM_BEETS_POOL);\r\n\r\n        _joinPool();\r\n\r\n        (uint256 poolBal, ) = IMasterChef(MASTER_CHEF).userInfo(mcPoolId, address(this));\r\n        if (poolBal != 0) {\r\n            IMasterChef(MASTER_CHEF).withdrawAndHarvest(mcPoolId, poolBal, address(this));\r\n        }\r\n\r\n        uint256 wantBalance = IERC20Upgradeable(want).balanceOf(address(this));\r\n        if (wantBalance != 0) {\r\n            IERC20Upgradeable(want).safeTransfer(vault, wantBalance);\r\n        }\r\n    }\r\n\r\n    /**\r\n     * Withdraws all funds leaving rewards behind.\r\n     */\r\n    function _reclaimWant() internal override {\r\n        IMasterChef(MASTER_CHEF).emergencyWithdraw(mcPoolId, address(this));\r\n    }\r\n\r\n    /**\r\n     * @dev Gives all the necessary allowances to:\r\n     *      - deposit {want} into {MASTER_CHEF}\r\n     */\r\n    function _giveAllowances() internal override {\r\n        IERC20Upgradeable(want).safeApprove(MASTER_CHEF, 0);\r\n        IERC20Upgradeable(want).safeApprove(MASTER_CHEF, type(uint256).max);\r\n    }\r\n\r\n    /**\r\n     * @dev Removes all the allowances that were given above.\r\n     */\r\n    function _removeAllowances() internal override {\r\n        IERC20Upgradeable(want).safeApprove(MASTER_CHEF, 0);\r\n    }\r\n}",
  "sourcePath": "E:\\2.Dev\\2\\fantohm\\2.Progress\\3.DefiYieldFarming\\marketplace\\src\\contracts\\ReaperStrategyBeethovenDaiUnderlying.sol",
  "compiler": {
    "name": "solc",
    "version": "0.8.10+commit.fc410830.Emscripten.clang"
  },
  "schemaVersion": "3.4.7",
  "updatedAt": "2022-05-19T10:45:50.951Z",
  "devdoc": {
    "details": "LP compounding strategy for Beethoven-X pools that have DAI as one of the tokens.",
    "kind": "dev",
    "methods": {
      "averageAPRAcrossLastNHarvests(int256)": {
        "details": "Traverses the harvest log backwards _n items,      and returns the average APR calculated across all the included      log entries. APR is multiplied by PERCENT_DIVISOR to retain precision."
      },
      "balanceOf()": {
        "details": "Function to calculate the total {want} held by the strat.      It takes into account both the funds in hand, plus the funds in the MasterChef."
      },
      "calculateAPRUsingLogs(uint256,uint256)": {
        "details": "Project an APR using the vault share price change between harvests at the provided indices."
      },
      "clearUpgradeCooldown()": {
        "details": "This function is called:      - in initialize()      - as part of a successful upgrade      - manually by DEFAULT_ADMIN_ROLE to clear the upgrade cooldown."
      },
      "deposit()": {
        "details": "Function that puts the funds to work.      It gets called whenever someone deposits in the strategy's vault contract.      Deposits go through only when the strategy is not paused."
      },
      "estimateHarvest()": {
        "details": "Returns the approx amount of profit from harvesting.      Profit is denominated in WFTM, and takes fees into account."
      },
      "getRoleAdmin(bytes32)": {
        "details": "Returns the admin role that controls `role`. See {grantRole} and {revokeRole}. To change a role's admin, use {_setRoleAdmin}."
      },
      "getRoleMember(bytes32,uint256)": {
        "details": "Returns one of the accounts that have `role`. `index` must be a value between 0 and {getRoleMemberCount}, non-inclusive. Role bearers are not sorted in any particular way, and their ordering may change at any point. WARNING: When using {getRoleMember} and {getRoleMemberCount}, make sure you perform all queries on the same block. See the following https://forum.openzeppelin.com/t/iterating-over-elements-on-enumerableset-in-openzeppelin-contracts/2296[forum post] for more information."
      },
      "getRoleMemberCount(bytes32)": {
        "details": "Returns the number of accounts that have `role`. Can be used together with {getRoleMember} to enumerate all bearers of a role."
      },
      "grantRole(bytes32,address)": {
        "details": "Grants `role` to `account`. If `account` had not been already granted `role`, emits a {RoleGranted} event. Requirements: - the caller must have ``role``'s admin role."
      },
      "harvest()": {
        "details": "harvest() function that takes care of logging. Subcontracts should      override _harvestCore() and implement their specific logic in it."
      },
      "hasRole(bytes32,address)": {
        "details": "Returns `true` if `account` has been granted `role`."
      },
      "initialize(address,address[],address[],address,uint256)": {
        "details": "Initializes the strategy. Sets parameters and saves routes."
      },
      "initiateUpgradeCooldown()": {
        "details": "DEFAULT_ADMIN_ROLE must call this function prior to upgrading the implementation      and wait UPGRADE_TIMELOCK seconds before executing the upgrade."
      },
      "panic()": {
        "details": "Pauses deposits. Withdraws all funds leaving rewards behind"
      },
      "pause()": {
        "details": "Pauses the strat. Deposits become disabled but users can still      withdraw. Removes allowances of external contracts."
      },
      "paused()": {
        "details": "Returns true if the contract is paused, and false otherwise."
      },
      "proxiableUUID()": {
        "details": "Implementation of the ERC1822 {proxiableUUID} function. This returns the storage slot used by the implementation. It is used to validate that the this implementation remains valid after an upgrade. IMPORTANT: A proxy pointing at a proxiable contract should not be considered proxiable itself, because this risks bricking a proxy that upgrades to it, by delegating to itself until out of gas. Thus it is critical that this function revert if invoked through a proxy. This is guaranteed by the `notDelegated` modifier."
      },
      "renounceRole(bytes32,address)": {
        "details": "Revokes `role` from the calling account. Roles are often managed via {grantRole} and {revokeRole}: this function's purpose is to provide a mechanism for accounts to lose their privileges if they are compromised (such as when a trusted device is misplaced). If the calling account had been revoked `role`, emits a {RoleRevoked} event. Requirements: - the caller must be `account`."
      },
      "retireStrat()": {
        "details": "Function to retire the strategy. Claims all rewards and withdraws      all principal from external contracts, and sends everything back to      the vault. Can only be called by strategist or owner. Note: this is not an emergency withdraw function. For that, see panic()."
      },
      "revokeRole(bytes32,address)": {
        "details": "Revokes `role` from `account`. If `account` had been granted `role`, emits a {RoleRevoked} event. Requirements: - the caller must have ``role``'s admin role."
      },
      "supportsInterface(bytes4)": {
        "details": "See {IERC165-supportsInterface}."
      },
      "unpause()": {
        "details": "Unpauses the strat. Opens up deposits again and invokes deposit().      Reinstates allowances for external contracts."
      },
      "updateFees(uint256,uint256,uint256)": {
        "details": "updates the call fee, treasury fee, and strategist fee      call Fee + treasury Fee must add up to PERCENT_DIVISOR      strategist fee is expressed as % of the treasury fee and      must be no more than STRATEGIST_MAX_FEE      only owner"
      },
      "updateHarvestLogCadence(uint256)": {
        "details": "Only strategist or owner can edit the log cadence."
      },
      "updateStrategistRemitter(address)": {
        "details": "Updates the current strategistRemitter.      If there is only one strategist this function may be called by      that strategist. However if there are multiple strategists      this function may only be called by the STRATEGIST_MULTISIG role."
      },
      "updateTotalFee(uint256)": {
        "details": "updates the total fee, capped at 5%; only owner."
      },
      "updateTreasury(address)": {
        "details": "only owner can update treasury address."
      },
      "upgradeTo(address)": {
        "details": "Upgrade the implementation of the proxy to `newImplementation`. Calls {_authorizeUpgrade}. Emits an {Upgraded} event."
      },
      "upgradeToAndCall(address,bytes)": {
        "details": "Upgrade the implementation of the proxy to `newImplementation`, and subsequently execute the function call encoded in `data`. Calls {_authorizeUpgrade}. Emits an {Upgraded} event."
      },
      "withdraw(uint256)": {
        "details": "Withdraws funds and sends them back to the vault. Can only      be called by the vault. _amount must be valid and security fee      is deducted up-front."
      }
    },
    "stateVariables": {
      "WFTM": {
        "details": "Tokens Used: {WFTM} - Required for liquidity routing when doing swaps. {DAI} - Token used to join the Beethoven-X pool using the rewards. {BEETS} - Reward token for depositing LP into MasterChef. {FHM} - Secondary reward token for depositing LP into MasterChef. {want} - LP token for the Beethoven-x pool. {underlyings} - Array of IAsset type to represent the underlying tokens of the pool."
      },
      "fhmToDaiPath": {
        "details": "More strategy variables, need to be initialized post-upgrade {fhmToDaiPath} - Path used to swap {FHM} to {DAI}. {fhmToWftmPath} - Path used to swap {FHM} to {WFTM}."
      },
      "mcPoolId": {
        "details": "Strategy variables {mcPoolId} - ID of MasterChef pool in which to deposit LP tokens {beetsPoolId} - bytes32 ID of the Beethoven-X pool corresponding to {want} {daiPosition} - Index of {DAI} in the Beethoven-X pool"
      }
    },
    "version": 1
  },
  "userdoc": {
    "events": {
      "TotalFeeUpdated(uint256)": {
        "notice": "{TotalFeeUpdated} Event that is fired each time the total fee is updated. {FeesUpdated} Event that is fired each time callFee+treasuryFee+strategistFee are updated. {StratHarvest} Event that is fired each time the strategy gets harvested. {StrategistRemitterUpdated} Event that is fired each time the strategistRemitter address is updated."
      }
    },
    "kind": "user",
    "methods": {
      "MAX_FEE()": {
        "notice": "Fee related constants: {MAX_FEE} - Maximum fee allowed by the strategy. Hard-capped at 10%. {STRATEGIST_MAX_FEE} - Maximum strategist fee allowed by the strategy (as % of treasury fee).                        Hard-capped at 50% {MAX_SECURITY_FEE} - Maximum security fee charged on withdrawal to prevent                      flash deposit/harvest attacks."
      },
      "STRATEGIST()": {
        "notice": "Reaper Roles"
      },
      "initialize(address,address[],address[],address,uint256)": {
        "notice": "see documentation for each variable above its respective declaration."
      },
      "setPathsPostUpgrade(address[],address[])": {
        "notice": "Admin-only function to set FHM swap paths post-upgrade."
      }
    },
    "version": 1
  }
}